:020000040000fa
:080000000002040000000000f2
:020000040000fa
:04000800c80200002a
:020000040000fa
:04000c00c802000026
:020000040000fa
:04001000c802000022
:020000040000fa
:04001400c80200001e
:020000040000fa
:04001800c80200001a
:020000040000fa
:04001c00c802000016
:020000040000fa
:04002000c802000012
:020000040000fa
:04002400c80200000e
:020000040000fa
:04002800c80200000a
:020000040000fa
:04002c00c802000006
:020000040000fa
:04003000c802000002
:020000040000fa
:04003400c8020000fe
:020000040000fa
:04003800c8020000fa
:020000040000fa
:04003c00c8020000f6
:020000040000fa
:04004000c8020000f2
:020000040000fa
:04004400c8020000ee
:020000040000fa
:04004800c8020000ea
:020000040000fa
:04004c00c8020000e6
:020000040000fa
:04005000c8020000e2
:020000040000fa
:04005400c8020000de
:020000040000fa
:04005800c8020000da
:020000040000fa
:04005c00c8020000d6
:020000040000fa
:04006000c8020000d2
:020000040000fa
:04006400c8020000ce
:020000040000fa
:04006800c8020000ca
:020000040000fa
:04006c00c8020000c6
:020000040000fa
:04007000c8020000c2
:020000040000fa
:04007400e2030000a3
:020000040000fa
:04007800c8020000ba
:020000040000fa
:04007c00c8020000b6
:020000040000fa
:04008000c8020000b2
:020000040000fa
:04008400c8020000ae
:020000040000fa
:04008800c8020000aa
:020000040000fa
:04008c00c8020000a6
:020000040000fa
:04009000c8020000a2
:020000040000fa
:04009400c80200009e
:020000040000fa
:04009800c80200009a
:020000040000fa
:04009c00c802000096
:020000040000fa
:0400a000c802000092
:020000040000fa
:0400a400c80200008e
:020000040000fa
:0400a800c80200008a
:020000040000fa
:0400ac00c802000086
:020000040000fa
:0400b000c802000082
:020000040000fa
:0400b400c80200007e
:020000040000fa
:0400b800c80200007a
:020000040000fa
:0400bc00c802000076
:020000040000fa
:0400c000c802000072
:020000040000fa
:0400c400c80200006e
:020000040000fa
:0400c800c80200006a
:020000040000fa
:0400cc00c802000066
:020000040000fa
:0400d000c802000062
:020000040000fa
:0400d400c80200005e
:020000040000fa
:0400d800c80200005a
:020000040000fa
:0400dc00c802000056
:020000040000fa
:0400e000c802000052
:020000040000fa
:0400e400c80200004e
:020000040000fa
:0400e800c80200004a
:020000040000fa
:0400ec00c802000046
:020000040000fa
:0400f000c802000042
:020000040000fa
:0400f400c80200003e
:020000040000fa
:0400f800c80200003a
:020000040000fa
:0400fc00c802000036
:020000040000fa
:04010000c802000031
:020000040000fa
:04010400c80200002d
:020000040000fa
:04010800c802000029
:020000040000fa
:04010c00c802000025
:020000040000fa
:04011000c802000021
:020000040000fa
:04011400c80200001d
:020000040000fa
:04011800c802000019
:020000040000fa
:04011c00c802000015
:020000040000fa
:04012000c802000011
:020000040000fa
:04012400c80200000d
:020000040000fa
:04012800c802000009
:020000040000fa
:04012c00c802000005
:020000040000fa
:04013000c802000001
:020000040000fa
:04013400c8020000fd
:020000040000fa
:04013800c8020000f9
:020000040000fa
:04013c00c8020000f5
:020000040000fa
:04014000c8020000f1
:020000040000fa
:04014400c8020000ed
:020000040000fa
:04014800c8020000e9
:020000040000fa
:04020800c802000028
:020000040000fa
:04020c00c802000024
:020000040000fa
:04021000c802000020
:020000040000fa
:04021400c80200001c
:020000040000fa
:04021800c802000018
:020000040000fa
:04021c00c802000014
:020000040000fa
:04022000c802000010
:020000040000fa
:04022400c80200000c
:020000040000fa
:04022800c802000008
:020000040000fa
:04022c00c802000004
:020000040000fa
:04023000c802000000
:020000040000fa
:04023400c8020000fc
:020000040000fa
:04023800c8020000f8
:020000040000fa
:04023c00c8020000f4
:020000040000fa
:04024000c8020000f0
:020000040000fa
:04024400c8020000ec
:020000040000fa
:04024800c8020000e8
:020000040000fa
:04024c00c8020000e4
:020000040000fa
:04025000c8020000e0
:020000040000fa
:04025400c8020000dc
:020000040000fa
:04025800c8020000d8
:020000040000fa
:04025c00c8020000d4
:020000040000fa
:04026000c8020000d0
:020000040000fa
:04026400c8020000cc
:020000040000fa
:04026800c8020000c8
:020000040000fa
:04026c00c8020000c4
:020000040000fa
:04027000c8020000c0
:020000040000fa
:04027400c8020000bc
:020000040000fa
:04027800c8020000b8
:020000040000fa
:04027c00c8020000b4
:020000040000fa
:04028000c8020000b0
:020000040000fa
:04028400c8020000ac
:020000040000fa
:04028800c8020000a8
:020000040000fa
:04028c00c8020000a4
:020000040000fa
:04029000c8020000a0
:020000040000fa
:04029400c80200009c
:020000040000fa
:04029800c802000098
:020000040000fa
:04029c00c802000094
:020000040000fa
:0402a000c802000090
:020000040000fa
:0402a400c80200008c
:020000040000fa
:0402a800c802000088
:020000040000fa
:0402ac00c802000084
:020000040000fa
:0402b000c802000080
:020000040000fa
:0402b400c80200007c
:020000040000fa
:0402b800c802000078
:020000040000fa
:0402bc00c802000074
:020000040000fa
:0402c000c802000070
:020000040000fa
:0402c400c80200006c
:020000040000fa
:0402c800c802000068
:020000040000fa
:0402cc00c802000064
:020000040000fa
:0402d000c802000060
:020000040000fa
:0402d400c80200005c
:020000040000fa
:0402d800c802000058
:020000040000fa
:0402dc00c802000054
:020000040000fa
:0402e000c802000050
:020000040000fa
:0402e400c80200004c
:020000040000fa
:0402e800c802000048
:020000040000fa
:0402ec00c802000044
:020000040000fa
:0402f000c802000040
:020000040000fa
:0402f400c80200003c
:020000040000fa
:0402f800c802000038
:020000040000fa
:0402fc00c802000034
:020000040000fa
:04030000c80200002f
:020000040000fa
:04030400c80200002b
:020000040000fa
:04030800c802000027
:020000040000fa
:04030c00c802000023
:020000040000fa
:04031000c80200001f
:020000040000fa
:04031400c80200001b
:020000040000fa
:04031800c802000017
:020000040000fa
:04031c00c802000013
:020000040000fa
:04032000c80200000f
:020000040000fa
:04032400c80200000b
:020000040000fa
:04032800c802000007
:020000040000fa
:04032c00c802000003
:020000040000fa
:04033000c8020000ff
:020000040000fa
:04033400c8020000fb
:020000040000fa
:04033800c8020000f7
:020000040000fa
:04033c00c8020000f3
:020000040000fa
:04034000c8020000ef
:020000040000fa
:04034400c8020000eb
:020000040000fa
:04034800c8020000e7
:020000040000fa
:100400008f8120000e7f22000e0188000000000076
:10041000000020000000e000020032000001200087
:1004200020028800140007005b0007000000e000c5
:1004300003003a00a07020000100200002003700f5
:100440000000200001002000810f70000100320038
:1004500014000700000020000000e000020032004d
:100460000000020000000000ce02020000000000b8
:100470000040da000000fe004440a9000000200017
:100480000000e0000300320000002000a00188000e
:100490004440a800000006008a1f78008b1f7800e7
:1004a0000000060091018800800478000000eb0045
:1004b0001a003700e284440032a0b4009905ba0063
:1004c000e284440032a0b4009906ba00e2844400f9
:1004d00032a0b4000006eb00476fde00fd07b2005b
:1004e000636ce10003003a00ebff07000000eb0043
:1004f0000a003700606ce10004003a00005deb0088
:100500008b05e900fdff3e00040037006168e10053
:10051000010032000086eb000b00070019c7ba008b
:100520001905ba000e04e00003003a000a00e000da
:10053000e0ff3a0000000600fe07b2009e018800be
:100540008a047800f5ff3700395dba008b05e900b1
:100550000c003200295dba008b05e900080032006a
:100560000c00e00003003a00e284440032a0b40032
:10057000f5ff370019ddba008b05e900faff3a00f4
:100580008904e800e184440032a0b40000000600c1
:0c0590000040da000000fe000000050042
:020000040000fa
:10059c000000fa000080eb0060198800f0002000d9
:1005ac000016880080e42f00401688000080eb00c5
:1005bc006016880040038000c000b3004003880030
:1005cc0051038000000026000100700050038800d9
:1005dc0000038000c000b3000003880011038000fa
:1005ec000000260001007000100388009660a8002f
:1005fc008660a900cc02a900cc22a900cc42a9009b
:10060c000100370000000000004080000000e00006
:10061c0006003200cc82a900cca2a800cce2a80033
:10062c00cd02a8000028ef00f7ff37001040800033
:10063c000000e00006003200cc82a800cca2a90089
:10064c00cce2a800cd02a8000228ef00eeff370094
:10065c00204080000000e00006003200cc82a9009f
:10066c00cca2a900cce2a800cd02a8000428ef007f
:10067c00e5ff3700304080000000e000060032004b
:10068c00cc82a800cca2a800cce2a900cd02a80084
:10069c000628ef00dcff3700404080000000e0003f
:1006ac0006003200cc82a900cca2a800cce2a900a2
:1006bc00cd02a8000828ef00d3ff3700504080007f
:1006cc000000e00006003200cc82a800cca2a900f9
:1006dc00cce2a900cd02a8000a28ef00caff37001f
:1006ec00604080000000e00006003200cc82a900cf
:1006fc00cca2a900cce2a900cd02a8000c28ef00e6
:10070c00c1ff3700704080000000e000060032009e
:10071c00cc82a800cca2a800cce2a800cd02a900f3
:10072c000e28ef00b8ff3700804080000000e0008a
:10073c0006003200cc82a900cca2a800cce2a80012
:10074c00cd02a9001028ef00afff370090408000c9
:10075c000000e00006003200cc82a800cca2a90068
:10076c00cce2a800cd02a9001228ef00a6ff3700aa
:10077c00a04080000000e00006003200cc82a800ff
:10078c00cca2a800cce2a800cd02a8001428ef004f
:10079c009dff3700b04080000000e00099ff320060
:1007ac00cc82a900cca2a900cce2a800cd02a90061
:1007bc001628ef0094ff3700809fbe003400f8002d
:1007cc0000002000a00188000400fa000000eb00eb
:1007dc00000f78000000eb00100798001016800046
:1007ec00610060000000e0005e003a000000eb00d9
:1007fc0010079800570037001e0090000000e00022
:10080c0019003a00cc22a800cc42a8000100370005
:10081c001e0fe80010168000610060000000e00070
:10082c0004003a00301f20009e007800808f50009a
:10083c00f7ff3400401f20009e007800808f50008e
:10084c0005003a001000200000408800cc22a900ce
:10085c00cc42a900670137000028ef00cc22a90088
:10086c00cc42a900380037001e009000e10f500068
:10087c0019003a00cc02a800cc42a80001003700b5
:10088c001e0fe80010168000610060000000e00000
:10089c0004003a00301f20009e007800808f50002a
:1008ac00f7ff3400401f20009e007800808f50001e
:1008bc0005003a001000200010408800cc02a9006e
:1008cc00cc42a9004b0137000228ef00cc02a90052
:1008dc00cc42a9001c0037001e009000e20f500013
:1008ec0019003a00cc02a800cc22a8000100370065
:1008fc001e0fe80010168000610060000000e00090
:10090c0004003a00301f20009e007800808f5000b9
:10091c00f7ff3400401f20009e007800808f5000ad
:10092c0006003a001000200020408800cc02a900ec
:10093c00cc22a900000000002e0137000428ef0093
:10094c00cc02a900cc22a9001e0090000000e800f7
:10095c00100798001e009000e20f5000a6ff340014
:10096c002401370010168000620060000000e000d7
:10097c005e003a000000eb001007980057003700ab
:10098c001e0090000000e00019003a00cc22a800e4
:10099c00cc42a800010037001e0fe80010168000a2
:1009ac00620060000000e00004003a00301f2000ec
:1009bc009e007800808f5000f7ff3400401f20000d
:1009cc009e007800808f500005003a001000200037
:1009dc0030408800cc22a900cc42a9000501370088
:1009ec000628ef00cc22a900cc42a9003800370021
:1009fc001e009000e10f500019003a00cc02a80034
:100a0c00cc42a800010037001e0fe8001016800031
:100a1c00620060000000e00004003a00301f20007b
:100a2c009e007800808f5000f7ff3400401f20009c
:100a3c009e007800808f500005003a0010002000c6
:100a4c0040408800cc02a900cc42a900e900370044
:100a5c000828ef00cc02a900cc42a9001c003700ea
:100a6c001e009000e20f500019003a00cc02a800c2
:100a7c00cc22a800010037001e0fe80010168000e1
:100a8c00620060000000e00004003a00301f20000b
:100a9c009e007800808f5000f7ff3400401f20002c
:100aac009e007800808f500006003a001000200055
:100abc0050408800cc02a900cc22a9000000000004
:100acc00cc0037000a28ef00cc02a900cc22a900e8
:100adc001e0090000000e800100798001e00900017
:100aec00e20f5000a6ff3400c20037001016800041
:100afc00640060000000e0005e003a000000eb00c3
:100b0c0010079800570037001e0090000000e0000e
:100b1c0019003a00cc22a800cc42a80001003700f2
:100b2c001e0fe80010168000640060000000e0005a
:100b3c0004003a00301f20009e007800808f500087
:100b4c00f7ff3400401f20009e007800808f50007b
:100b5c0005003a001000200060408800cc22a9005b
:100b6c00cc42a900a30037000c28ef00cc22a9002e
:100b7c00cc42a900380037001e009000e10f500055
:100b8c0019003a00cc02a800cc42a80001003700a2
:100b9c001e0fe80010168000640060000000e000ea
:100bac0004003a00301f20009e007800808f500017
:100bbc00f7ff3400401f20009e007800808f50000b
:100bcc0005003a001000200070408800cc02a900fb
:100bdc00cc42a900870037000e28ef00cc02a900f8
:100bec00cc42a9001c0037001e009000e20f500000
:100bfc0019003a00cc02a800cc22a8000100370052
:100c0c001e0fe80010168000640060000000e00079
:100c1c0004003a00301f20009e007800808f5000a6
:100c2c00f7ff3400401f20009e007800808f50009a
:100c3c0006003a001000200080408800cc02a90079
:100c4c00cc22a900000000006a0037001028ef0039
:100c5c00cc02a900cc22a9001e0090000000e800e4
:100c6c00100798001e009000e20f5000a6ff340001
:100c7c006000370010168000680060000000e00083
:100c8c005c003a000000eb0010079800560037009b
:100c9c001e0090000000e00019003a00cc22a800d1
:100cac00cc42a800010037001e0fe800101680008f
:100cbc00680060000000e00004003a00301f2000d3
:100ccc009e007800808f5000f7ff3400401f2000fa
:100cdc009e007800808f500005003a001000200024
:100cec0090408800cc22a900cc42a90041003700da
:100cfc001228ef00cc22a900cc42a9003700370003
:100d0c001e009000e10f500019003a00cc02a80020
:100d1c00cc42a800010037001e0fe800101680001e
:100d2c00680060000000e00004003a00301f200062
:100d3c009e007800808f5000f7ff3400401f200089
:100d4c009e007800808f500005003a0010002000b3
:100d5c00a0408800cc02a900cc42a9002500370095
:100d6c001428ef00cc02a900cc42a9001b003700cc
:100d7c001e009000e20f500018003a00cc02a800b0
:100d8c00cc22a800010037001e0fe80010168000ce
:100d9c00680060000000e00004003a00301f2000f2
:100dac009e007800808f5000f7ff3400401f200019
:100dbc009e007800808f500005003a001000200043
:100dcc00b0408800cc02a900cc22a9000900370051
:100ddc001628ef00cc02a900cc22a9001e0090001e
:100dec000000e800100798001e009000e20f500071
:100dfc00a7ff34008660a9000080fa003400f900d7
:080e0c004f00be00004006008b
:020000040000fa
:100e140000080000180000000000000000000000ae
:020000040000fa
:020000040001f9
:0457f8009ff9000015
:020000040000fa
:020000040001f9
:0457fc007f3e0000ec
:00000001FF
