:020000040000fa
:080000000002040000000000f2
:020000040000fa
:04000800c80200002a
:020000040000fa
:04000c00c802000026
:020000040000fa
:04001000c802000022
:020000040000fa
:04001400c80200001e
:020000040000fa
:04001800c80200001a
:020000040000fa
:04001c00c802000016
:020000040000fa
:04002000c802000012
:020000040000fa
:04002400c80200000e
:020000040000fa
:04002800c80200000a
:020000040000fa
:04002c00c802000006
:020000040000fa
:04003000c802000002
:020000040000fa
:04003400c8020000fe
:020000040000fa
:04003800c8020000fa
:020000040000fa
:04003c00c8020000f6
:020000040000fa
:04004000c8020000f2
:020000040000fa
:04004400c8020000ee
:020000040000fa
:04004800c8020000ea
:020000040000fa
:04004c00c8020000e6
:020000040000fa
:04005000c8020000e2
:020000040000fa
:04005400c8020000de
:020000040000fa
:04005800c8020000da
:020000040000fa
:04005c00c8020000d6
:020000040000fa
:04006000c8020000d2
:020000040000fa
:04006400c8020000ce
:020000040000fa
:04006800c8020000ca
:020000040000fa
:04006c00c8020000c6
:020000040000fa
:04007000c8020000c2
:020000040000fa
:04007400e2030000a3
:020000040000fa
:04007800c8020000ba
:020000040000fa
:04007c00c8020000b6
:020000040000fa
:04008000c8020000b2
:020000040000fa
:04008400c8020000ae
:020000040000fa
:04008800c8020000aa
:020000040000fa
:04008c00c8020000a6
:020000040000fa
:04009000c8020000a2
:020000040000fa
:04009400c80200009e
:020000040000fa
:04009800c80200009a
:020000040000fa
:04009c00c802000096
:020000040000fa
:0400a000c802000092
:020000040000fa
:0400a400c80200008e
:020000040000fa
:0400a800c80200008a
:020000040000fa
:0400ac00c802000086
:020000040000fa
:0400b000c802000082
:020000040000fa
:0400b400c80200007e
:020000040000fa
:0400b800c80200007a
:020000040000fa
:0400bc00c802000076
:020000040000fa
:0400c000c802000072
:020000040000fa
:0400c400c80200006e
:020000040000fa
:0400c800c80200006a
:020000040000fa
:0400cc00c802000066
:020000040000fa
:0400d000c802000062
:020000040000fa
:0400d400c80200005e
:020000040000fa
:0400d800c80200005a
:020000040000fa
:0400dc00c802000056
:020000040000fa
:0400e000c802000052
:020000040000fa
:0400e400c80200004e
:020000040000fa
:0400e800c80200004a
:020000040000fa
:0400ec00c802000046
:020000040000fa
:0400f000c802000042
:020000040000fa
:0400f400c80200003e
:020000040000fa
:0400f800c80200003a
:020000040000fa
:0400fc00c802000036
:020000040000fa
:04010000c802000031
:020000040000fa
:04010400c80200002d
:020000040000fa
:04010800c802000029
:020000040000fa
:04010c00c802000025
:020000040000fa
:04011000c802000021
:020000040000fa
:04011400c80200001d
:020000040000fa
:04011800c802000019
:020000040000fa
:04011c00c802000015
:020000040000fa
:04012000c802000011
:020000040000fa
:04012400c80200000d
:020000040000fa
:04012800c802000009
:020000040000fa
:04012c00c802000005
:020000040000fa
:04013000c802000001
:020000040000fa
:04013400c8020000fd
:020000040000fa
:04013800c8020000f9
:020000040000fa
:04013c00c8020000f5
:020000040000fa
:04014000c8020000f1
:020000040000fa
:04014400c8020000ed
:020000040000fa
:04014800c8020000e9
:020000040000fa
:04014c00c8020000e5
:020000040000fa
:04015000c8020000e1
:020000040000fa
:04015400c8020000dd
:020000040000fa
:04015800c8020000d9
:020000040000fa
:04015c00c8020000d5
:020000040000fa
:04016000c8020000d1
:020000040000fa
:04016400c8020000cd
:020000040000fa
:04016800c8020000c9
:020000040000fa
:04016c00c8020000c5
:020000040000fa
:04017000c8020000c1
:020000040000fa
:04017400c8020000bd
:020000040000fa
:04017800c8020000b9
:020000040000fa
:04017c00c8020000b5
:020000040000fa
:04018000c8020000b1
:020000040000fa
:04020800c802000028
:020000040000fa
:04020c00c802000024
:020000040000fa
:04021000c802000020
:020000040000fa
:04021400c80200001c
:020000040000fa
:04021800c802000018
:020000040000fa
:04021c00c802000014
:020000040000fa
:04022000c802000010
:020000040000fa
:04022400c80200000c
:020000040000fa
:04022800c802000008
:020000040000fa
:04022c00c802000004
:020000040000fa
:04023000c802000000
:020000040000fa
:04023400c8020000fc
:020000040000fa
:04023800c8020000f8
:020000040000fa
:04023c00c8020000f4
:020000040000fa
:04024000c8020000f0
:020000040000fa
:04024400c8020000ec
:020000040000fa
:04024800c8020000e8
:020000040000fa
:04024c00c8020000e4
:020000040000fa
:04025000c8020000e0
:020000040000fa
:04025400c8020000dc
:020000040000fa
:04025800c8020000d8
:020000040000fa
:04025c00c8020000d4
:020000040000fa
:04026000c8020000d0
:020000040000fa
:04026400c8020000cc
:020000040000fa
:04026800c8020000c8
:020000040000fa
:04026c00c8020000c4
:020000040000fa
:04027000c8020000c0
:020000040000fa
:04027400c8020000bc
:020000040000fa
:04027800c8020000b8
:020000040000fa
:04027c00c8020000b4
:020000040000fa
:04028000c8020000b0
:020000040000fa
:04028400c8020000ac
:020000040000fa
:04028800c8020000a8
:020000040000fa
:04028c00c8020000a4
:020000040000fa
:04029000c8020000a0
:020000040000fa
:04029400c80200009c
:020000040000fa
:04029800c802000098
:020000040000fa
:04029c00c802000094
:020000040000fa
:0402a000c802000090
:020000040000fa
:0402a400c80200008c
:020000040000fa
:0402a800c802000088
:020000040000fa
:0402ac00c802000084
:020000040000fa
:0402b000c802000080
:020000040000fa
:0402b400c80200007c
:020000040000fa
:0402b800c802000078
:020000040000fa
:0402bc00c802000074
:020000040000fa
:0402c000c802000070
:020000040000fa
:0402c400c80200006c
:020000040000fa
:0402c800c802000068
:020000040000fa
:0402cc00c802000064
:020000040000fa
:0402d000c802000060
:020000040000fa
:0402d400c80200005c
:020000040000fa
:0402d800c802000058
:020000040000fa
:0402dc00c802000054
:020000040000fa
:0402e000c802000050
:020000040000fa
:0402e400c80200004c
:020000040000fa
:0402e800c802000048
:020000040000fa
:0402ec00c802000044
:020000040000fa
:0402f000c802000040
:020000040000fa
:0402f400c80200003c
:020000040000fa
:0402f800c802000038
:020000040000fa
:0402fc00c802000034
:020000040000fa
:04030000c80200002f
:020000040000fa
:04030400c80200002b
:020000040000fa
:04030800c802000027
:020000040000fa
:04030c00c802000023
:020000040000fa
:04031000c80200001f
:020000040000fa
:04031400c80200001b
:020000040000fa
:04031800c802000017
:020000040000fa
:04031c00c802000013
:020000040000fa
:04032000c80200000f
:020000040000fa
:04032400c80200000b
:020000040000fa
:04032800c802000007
:020000040000fa
:04032c00c802000003
:020000040000fa
:04033000c8020000ff
:020000040000fa
:04033400c8020000fb
:020000040000fa
:04033800c8020000f7
:020000040000fa
:04033c00c8020000f3
:020000040000fa
:04034000c8020000ef
:020000040000fa
:04034400c8020000eb
:020000040000fa
:04034800c8020000e7
:020000040000fa
:04034c00c8020000e3
:020000040000fa
:04035000c8020000df
:020000040000fa
:04035400c8020000db
:020000040000fa
:04035800c8020000d7
:020000040000fa
:04035c00c8020000d3
:020000040000fa
:04036000c8020000cf
:020000040000fa
:04036400c8020000cb
:020000040000fa
:04036800c8020000c7
:020000040000fa
:04036c00c8020000c3
:020000040000fa
:04037000c8020000bf
:020000040000fa
:04037400c8020000bb
:020000040000fa
:04037800c8020000b7
:020000040000fa
:04037c00c8020000b3
:020000040000fa
:04038000c8020000af
:020000040000fa
:100400008f8120000e7f22000e0188000000000076
:10041000000020000000e000020032000001200087
:1004200020028800140007005b0007000000e000c5
:1004300003003a00808820000100200002003700fd
:100440000000200001002000810f70000100320038
:1004500014000700000020000000e000020032004d
:100460000000020000000000ce02020000000000b8
:100470000040da000000fe004440a9000000200017
:100480000000e0000300320000002000a00188000e
:100490004440a800000006008a1f78008b1f7800e7
:1004a0000000060091018800800478000000eb0045
:1004b0001a003700e284440032a0b4009905ba0063
:1004c000e284440032a0b4009906ba00e2844400f9
:1004d00032a0b4000006eb00476fde00fd07b2005b
:1004e000636ce10003003a00ebff07000000eb0043
:1004f0000a003700606ce10004003a00005deb0088
:100500008b05e900fdff3e00040037006168e10053
:10051000010032000086eb000b00070019c7ba008b
:100520001905ba000e04e00003003a000a00e000da
:10053000e0ff3a0000000600fe07b2009e018800be
:100540008a047800f5ff3700395dba008b05e900b1
:100550000c003200295dba008b05e900080032006a
:100560000c00e00003003a00e284440032a0b40032
:10057000f5ff370019ddba008b05e900faff3a00f4
:100580008904e800e184440032a0b40000000600c1
:0c0590000040da000000fe000000050042
:020000040000fa
:10059c000000fa000080eb0060198800f0002000d9
:1005ac000016880080e42f00401688000080eb00c5
:1005bc006016880040038000c000b3004003880030
:1005cc0051038000000026000100700050038800d9
:1005dc0000038000c000b3000003880011038000fa
:1005ec000000260001007000100388009660a8002f
:1005fc008660a900cc02a900cc22a900cc42a9009b
:10060c000100370000000000004080000000e00006
:10061c0006003200cc82a900cca2a800cce2a80033
:10062c00cd02a8000028ef00f7ff37001040800033
:10063c000000e00006003200cc82a800cca2a90089
:10064c00cce2a800cd02a8000228ef00eeff370094
:10065c00204080000000e00006003200cc82a9009f
:10066c00cca2a900cce2a800cd02a8000428ef007f
:10067c00e5ff3700304080000000e000060032004b
:10068c00cc82a800cca2a800cce2a900cd02a80084
:10069c000628ef00dcff3700404080000000e0003f
:1006ac0006003200cc82a900cca2a800cce2a900a2
:1006bc00cd02a8000828ef00d3ff3700504080007f
:1006cc000000e00006003200cc82a800cca2a900f9
:1006dc00cce2a900cd02a8000a28ef00caff37001f
:1006ec00604080000000e00006003200cc82a900cf
:1006fc00cca2a900cce2a900cd02a8000c28ef00e6
:10070c00c1ff3700704080000000e000060032009e
:10071c00cc82a800cca2a800cce2a800cd02a900f3
:10072c000e28ef00b8ff3700804080000000e0008a
:10073c0006003200cc82a900cca2a800cce2a80012
:10074c00cd02a9001028ef00afff370090408000c9
:10075c000000e00006003200cc82a800cca2a90068
:10076c00cce2a800cd02a9001228ef00a6ff3700aa
:10077c00a04080000000e00006003200cc82a800ff
:10078c00cca2a800cce2a800cd02a8001428ef004f
:10079c009dff3700b04080000000e00099ff320060
:1007ac00cc82a900cca2a900cce2a800cd02a90061
:1007bc001628ef0094ff3700801f78003400f800f3
:1007cc0000002000a00188000400fa000000eb00eb
:1007dc00000f78000000eb00100798001016800046
:1007ec00610060000000e00055003a000000eb00e2
:1007fc00100798004e0037001e0090000000e0002b
:10080c0016003a00cc02a900cc22a800cc42a800c9
:10081c00010037001e0fe800101680006100600018
:10082c000000e00003003a001e007800e90f5000c1
:10083c00f8ff34001e007800ea0f500005003a0063
:10084c001000200000408800cc22a900cc42a90056
:10085c00440137000028ef00320037001e009000e2
:10086c00e10f500016003a00cc02a800cc22a900df
:10087c00cc42a800010037001e0fe80010168000c3
:10088c00610060000000e00003003a001e007800e8
:10089c00e90f5000f8ff34001e007800ea0f5000fa
:1008ac0005003a001000200010408800cc02a9007e
:1008bc00cc42a9002b0137000228ef0019003700a9
:1008cc001e009000e20f500016003a00cc02a80067
:1008dc00cc22a800cc42a900010037001e0fe80072
:1008ec0010168000610060000000e00003003a0078
:1008fc001e007800e90f5000f8ff34001e0078004d
:10090c00ea0f500006003a0010002000204088003a
:10091c00cc02a900cc22a900000000001101370074
:10092c000428ef001e0090000000e800100798005b
:10093c001e009000e20f5000afff34000901370099
:10094c0010168000620060000000e00055003a00c4
:10095c000000eb00100798004e0037001e009000be
:10096c000000e00016003a00cc02a900cc22a8003e
:10097c00cc42a800010037001e0fe80010168000c2
:10098c00620060000000e00003003a001e007800e6
:10099c00e90f5000f8ff34001e007800ea0f5000f9
:1009ac0005003a001000200030408800cc22a9003d
:1009bc00cc42a900eb0037000628ef0032003700cc
:1009cc001e009000e10f500016003a00cc02a80067
:1009dc00cc22a900cc42a800010037001e0fe80071
:1009ec0010168000620060000000e00003003a0076
:1009fc001e007800e90f5000f8ff34001e0078004c
:100a0c00ea0f500005003a0010002000404088001a
:100a1c00cc02a900cc42a900d20037000828ef0074
:100a2c00190037001e009000e20f500016003a002b
:100a3c00cc02a800cc22a800cc42a90001003700af
:100a4c001e0fe80010168000620060000000e0003d
:100a5c0003003a001e007800e90f5000f8ff340044
:100a6c001e007800ea0f500006003a00100020002b
:100a7c0050408800cc02a900cc22a9000000000044
:100a8c00b80037000a28ef001e0090000000e800b4
:100a9c00100798001e009000e20f5000afff3400ca
:100aac00b000370010168000640060000000e00009
:100abc0055003a000000eb00100798004e0037007c
:100acc001e0090000000e00016003a00cc02a900c5
:100adc00cc22a800cc42a800010037001e0fe80071
:100aec0010168000640060000000e00003003a0073
:100afc001e007800e90f5000f8ff34001e0078004b
:100b0c00ea0f500005003a001000200060408800f9
:100b1c00cc22a900cc42a900920037000c28ef008f
:100b2c00320037001e009000e10f500016003a0012
:100b3c00cc02a800cc22a900cc42a80001003700ae
:100b4c001e0fe80010168000640060000000e0003a
:100b5c0003003a001e007800e90f5000f8ff340043
:100b6c001e007800ea0f500005003a00100020002b
:100b7c0070408800cc02a900cc42a9007900370053
:100b8c000e28ef00190037001e009000e20f5000f5
:100b9c0016003a00cc02a800cc22a800cc42a90036
:100bac00010037001e0fe800101680006400600082
:100bbc000000e00003003a001e007800e90f50002e
:100bcc00f8ff34001e007800ea0f500006003a00cf
:100bdc001000200080408800cc02a900cc22a90083
:100bec00000000005f0037001028ef001e0090008e
:100bfc000000e800100798001e009000e20f500063
:100c0c00afff3400570037001016800068006000fa
:100c1c000000e00053003a000000eb0010079800c1
:100c2c004d0037001e0090000000e00016003a0056
:100c3c00cc02a900cc22a800cc42a80001003700ad
:100c4c001e0fe80010168000680060000000e00035
:100c5c0003003a001e007800e90f5000f8ff340042
:100c6c001e007800ea0f500005003a00100020002a
:100c7c0090408800cc22a900cc42a9003900370052
:100c8c001228ef00310037001e009000e10f5000d9
:100c9c0016003a00cc02a800cc22a900cc42a80035
:100cac00010037001e0fe80010168000680060007d
:100cbc000000e00003003a001e007800e90f50002d
:100ccc00f8ff34001e007800ea0f500005003a00cf
:100cdc0010002000a0408800cc02a900cc42a90042
:100cec00200037001428ef00180037001e00900079
:100cfc00e20f500015003a00cc02a800cc22a8004c
:100d0c00cc42a900010037001e0fe800101680002d
:100d1c00680060000000e00003003a001e0078004c
:100d2c00e90f5000f8ff34001e007800ea0f500065
:100d3c0005003a0010002000b0408800cc02a90049
:100d4c00cc22a900070037001628ef001e009000e7
:100d5c000000e800100798001e009000e20f500001
:100d6c00b0ff34008660a9000080fa003400f9005e
:100d7c004f007800004006000200fa000000eb0073
:100d8c00000f7800250037001e007800e10f50009e
:100d9c000e003200e20f5000160032000000e0009e
:100dac001e003a00e0ff2f0060168800101680002d
:100dbc00610060000000e00004003a006116800051
:100dcc00f0e52f000080600060168800d0ff2f0037
:100ddc006016880010168000610060000000e000c2
:100dec0004003a0061168000f0e62f0000806000dd
:100dfc0060168800b0ff2f00601688001016800067
:100e0c00610060000000e00004003a006116800000
:100e1c00f0e72f0000806000601688001e0078004c
:100e2c00e20f5000d8ff34000080fa0000000600ea
:100e3c000200fa000000eb00000f780025003700dc
:100e4c001e007800e10f50000e003200e20f50003f
:100e5c00160032000000e0001e003a00e0ff2f00f8
:100e6c006016880010168000620060000000e00030
:100e7c0004003a0061168000f0ec2f000080600046
:100e8c0060168800d0ff2f006016880010168000b6
:100e9c00620060000000e00004003a00611680006f
:100eac00f0ed2f000080600060168800b0ff2f006e
:100ebc006016880010168000620060000000e000e0
:100ecc0004003a0061168000f0ee2f0000806000f4
:100edc00601688001e007800e20f5000d8ff340026
:100eec000080fa00000006000200fa000000eb008f
:100efc00000f7800240037001e007800e10f50002e
:100f0c000d003200e20f5000150032000000e0002e
:100f1c001d003a00e0ff2f006016880010168000bc
:100f2c00640060000000e00003003a0060168000de
:100f3c000080a10060168800d0ff2f00601688008a
:100f4c0010168000640060000000e00004003a000d
:100f5c0061168000f0f42f0000806000601688009d
:100f6c00b0ff2f006016880010168000640060002f
:100f7c000000e00004003a0061168000f0f52f003c
:100f8c0000806000601688001e007800e20f5000a0
:100f9c00d9ff34000080fa00000006000200fa00bd
:100fac000000eb00000f7800240037001e007800d2
:100fbc00e10f50000e003200e20f5000160032001c
:100fcc000000e0001d003a00e0ff2f0060168800d2
:100fdc0010168000680060000000e00004003a0079
:100fec0061168000f0f62f0000806000601688000b
:100ffc00d0ff2f006016880010168000680060007b
:10100c000000e00004003a0061168000f0e42f00bc
:10101c000080600060168800b0ff2f00601688000a
:10102c0010168000680060000000e00003003a0029
:10103c00601680000070a100601688001e00780009
:10104c00e20f5000d9ff34000080fa0000000600c7
:10105c000000fa00601680004400de006140600071
:10106c0000c0ea00614060000080fb00610060008d
:10107c004400dd00611680000140a10001007000f9
:10108c00601688000080fa00000006000000fa00dc
:10109c00601680004500de006140600000c0ea0080
:1010ac00614060000080fb00610060004500dd00d5
:1010bc00611680000150a1000100700060168800cc
:1010cc000080fa00000006000000fa0060168000a4
:1010dc004700de006140600000c0ea006140600033
:1010ec000080fb00610060004700dd00611680009d
:1010fc000170a10001007000601688000080fa00e9
:04110c0000000600d9
:020000040000fa
:1011100000080000180000000000000000000000af
:020000040000fa
:020000040001f9
:0457f400fffc0000b6
:020000040000fa
:020000040001f9
:0457f8009f8100008d
:020000040000fa
:020000040001f9
:0457fc007f3f0000eb
:00000001FF
