:020000040000fa
:08000000be0204000000000034
:020000040000fa
:04000800b80200003a
:020000040000fa
:04000c00b802000036
:020000040000fa
:04001000b802000032
:020000040000fa
:04001400b80200002e
:020000040000fa
:04001800b80200002a
:020000040000fa
:04001c00b802000026
:020000040000fa
:04002000b802000022
:020000040000fa
:04002400b80200001e
:020000040000fa
:04002800b80200001a
:020000040000fa
:04002c00b802000016
:020000040000fa
:04003000b802000012
:020000040000fa
:04003400b80200000e
:020000040000fa
:04003800b80200000a
:020000040000fa
:04003c00b802000006
:020000040000fa
:04004000b802000002
:020000040000fa
:04004400b8020000fe
:020000040000fa
:04004800b8020000fa
:020000040000fa
:04004c00b8020000f6
:020000040000fa
:04005000b8020000f2
:020000040000fa
:04005400b8020000ee
:020000040000fa
:04005800b8020000ea
:020000040000fa
:04005c00b8020000e6
:020000040000fa
:04006000b8020000e2
:020000040000fa
:04006400b8020000de
:020000040000fa
:04006800b8020000da
:020000040000fa
:04006c00b8020000d6
:020000040000fa
:04007000b8020000d2
:020000040000fa
:04007400b8020000ce
:020000040000fa
:04007800b8020000ca
:020000040000fa
:04007c00b8020000c6
:020000040000fa
:04008000b8020000c2
:020000040000fa
:04008400b8020000be
:020000040000fa
:04008800b8020000ba
:020000040000fa
:04008c00b8020000b6
:020000040000fa
:04009000b8020000b2
:020000040000fa
:04009400b8020000ae
:020000040000fa
:04009800b8020000aa
:020000040000fa
:04009c00b8020000a6
:020000040000fa
:0400a000b8020000a2
:020000040000fa
:0400a400b80200009e
:020000040000fa
:0400a800b80200009a
:020000040000fa
:0400ac00b802000096
:020000040000fa
:0400b000b802000092
:020000040000fa
:0400b400b80200008e
:020000040000fa
:0400b800b80200008a
:020000040000fa
:0400bc00b802000086
:020000040000fa
:0400c000b802000082
:020000040000fa
:0400c400b80200007e
:020000040000fa
:0400c800b80200007a
:020000040000fa
:0400cc00b802000076
:020000040000fa
:0400d000b802000072
:020000040000fa
:0400d400b80200006e
:020000040000fa
:0400d800b80200006a
:020000040000fa
:0400dc00b802000066
:020000040000fa
:0400e000b802000062
:020000040000fa
:0400e400b80200005e
:020000040000fa
:0400e800b80200005a
:020000040000fa
:0400ec00b802000056
:020000040000fa
:0400f000b802000052
:020000040000fa
:0400f400b80200004e
:020000040000fa
:0400f800b80200004a
:020000040000fa
:0400fc00b802000046
:020000040000fa
:04010000b802000041
:020000040000fa
:04010400b80200003d
:020000040000fa
:04010800b802000039
:020000040000fa
:04010c00b802000035
:020000040000fa
:04011000b802000031
:020000040000fa
:04011400b80200002d
:020000040000fa
:04011800b802000029
:020000040000fa
:04011c00b802000025
:020000040000fa
:04012000b802000021
:020000040000fa
:04012400b80200001d
:020000040000fa
:04012800b802000019
:020000040000fa
:04012c00b802000015
:020000040000fa
:04013000b802000011
:020000040000fa
:04013400b80200000d
:020000040000fa
:04013800b802000009
:020000040000fa
:04013c00b802000005
:020000040000fa
:04014000b802000001
:020000040000fa
:04014400b8020000fd
:020000040000fa
:04014800b8020000f9
:020000040000fa
:04014c00b8020000f5
:020000040000fa
:04015000b8020000f1
:020000040000fa
:04015400b8020000ed
:020000040000fa
:04015800b8020000e9
:020000040000fa
:04015c00b8020000e5
:020000040000fa
:04016000b8020000e1
:020000040000fa
:04016400b8020000dd
:020000040000fa
:04016800b8020000d9
:020000040000fa
:04016c00b8020000d5
:020000040000fa
:04017000b8020000d1
:020000040000fa
:04017400b8020000cd
:020000040000fa
:04017800b8020000c9
:020000040000fa
:04017c00b8020000c5
:020000040000fa
:04018000b8020000c1
:020000040000fa
:04018400b8020000bd
:020000040000fa
:04018800b8020000b9
:020000040000fa
:04018c00b8020000b5
:020000040000fa
:04019000b8020000b1
:020000040000fa
:04019400b8020000ad
:020000040000fa
:04019800b8020000a9
:020000040000fa
:04019c00b8020000a5
:020000040000fa
:0401a000b8020000a1
:020000040000fa
:0401a400b80200009d
:020000040000fa
:0401a800b802000099
:020000040000fa
:0401ac00b802000095
:020000040000fa
:0401b000b802000091
:020000040000fa
:0401b400b80200008d
:020000040000fa
:0401b800b802000089
:020000040000fa
:0401bc00b802000085
:020000040000fa
:0401c000b802000081
:020000040000fa
:0401c400b80200007d
:020000040000fa
:0401c800b802000079
:020000040000fa
:0401cc00b802000075
:020000040000fa
:0401d000b802000071
:020000040000fa
:0401d400b80200006d
:020000040000fa
:0401d800b802000069
:020000040000fa
:0401dc00b802000065
:020000040000fa
:0401e000b802000061
:020000040000fa
:0401e400b80200005d
:020000040000fa
:0401e800b802000059
:020000040000fa
:0401ec00b802000055
:020000040000fa
:0401f000b802000051
:020000040000fa
:0401f400b80200004d
:020000040000fa
:0401f800b802000049
:020000040000fa
:0401fc00b802000045
:020000040000fa
:04020800b802000038
:020000040000fa
:04020c00b802000034
:020000040000fa
:04021000b802000030
:020000040000fa
:04021400b80200002c
:020000040000fa
:04021800b802000028
:020000040000fa
:04021c00b802000024
:020000040000fa
:04022000b802000020
:020000040000fa
:04022400b80200001c
:020000040000fa
:04022800b802000018
:020000040000fa
:04022c00b802000014
:020000040000fa
:04023000b802000010
:020000040000fa
:04023400b80200000c
:020000040000fa
:04023800b802000008
:020000040000fa
:04023c00b802000004
:020000040000fa
:04024000b802000000
:020000040000fa
:04024400b8020000fc
:020000040000fa
:04024800b8020000f8
:020000040000fa
:04024c00b8020000f4
:020000040000fa
:04025000b8020000f0
:020000040000fa
:04025400b8020000ec
:020000040000fa
:04025800b8020000e8
:020000040000fa
:04025c00b8020000e4
:020000040000fa
:04026000b8020000e0
:020000040000fa
:04026400b8020000dc
:020000040000fa
:04026800b8020000d8
:020000040000fa
:04026c00b8020000d4
:020000040000fa
:04027000b8020000d0
:020000040000fa
:04027400b8020000cc
:020000040000fa
:04027800b8020000c8
:020000040000fa
:04027c00b8020000c4
:020000040000fa
:04028000b8020000c0
:020000040000fa
:04028400b8020000bc
:020000040000fa
:04028800b8020000b8
:020000040000fa
:04028c00b8020000b4
:020000040000fa
:04029000b8020000b0
:020000040000fa
:04029400b8020000ac
:020000040000fa
:04029800b8020000a8
:020000040000fa
:04029c00b8020000a4
:020000040000fa
:0402a000b8020000a0
:020000040000fa
:0402a400b80200009c
:020000040000fa
:0402a800b802000098
:020000040000fa
:0402ac00b802000094
:020000040000fa
:0402b000b802000090
:020000040000fa
:0402b400b80200008c
:020000040000fa
:0402b800b802000088
:020000040000fa
:0402bc00b802000084
:020000040000fa
:0402c000b802000080
:020000040000fa
:0402c400b80200007c
:020000040000fa
:0402c800b802000078
:020000040000fa
:0402cc00b802000074
:020000040000fa
:0402d000b802000070
:020000040000fa
:0402d400b80200006c
:020000040000fa
:0402d800b802000068
:020000040000fa
:0402dc00b802000064
:020000040000fa
:0402e000b802000060
:020000040000fa
:0402e400b80200005c
:020000040000fa
:0402e800b802000058
:020000040000fa
:0402ec00b802000054
:020000040000fa
:0402f000b802000050
:020000040000fa
:0402f400b80200004c
:020000040000fa
:0402f800b802000048
:020000040000fa
:0402fc00b802000044
:020000040000fa
:04030000b80200003f
:020000040000fa
:04030400b80200003b
:020000040000fa
:04030800b802000037
:020000040000fa
:04030c00b802000033
:020000040000fa
:04031000b80200002f
:020000040000fa
:04031400b80200002b
:020000040000fa
:04031800b802000027
:020000040000fa
:04031c00b802000023
:020000040000fa
:04032000b80200001f
:020000040000fa
:04032400b80200001b
:020000040000fa
:04032800b802000017
:020000040000fa
:04032c00b802000013
:020000040000fa
:04033000b80200000f
:020000040000fa
:04033400b80200000b
:020000040000fa
:04033800b802000007
:020000040000fa
:04033c00b802000003
:020000040000fa
:04034000b8020000ff
:020000040000fa
:04034400b8020000fb
:020000040000fa
:04034800b8020000f7
:020000040000fa
:04034c00b8020000f3
:020000040000fa
:04035000b8020000ef
:020000040000fa
:04035400b8020000eb
:020000040000fa
:04035800b8020000e7
:020000040000fa
:04035c00b8020000e3
:020000040000fa
:04036000b8020000df
:020000040000fa
:04036400b8020000db
:020000040000fa
:04036800b8020000d7
:020000040000fa
:04036c00b8020000d3
:020000040000fa
:04037000b8020000cf
:020000040000fa
:04037400b8020000cb
:020000040000fa
:04037800b8020000c7
:020000040000fa
:04037c00b8020000c3
:020000040000fa
:04038000b8020000bf
:020000040000fa
:04038400b8020000bb
:020000040000fa
:04038800b8020000b7
:020000040000fa
:04038c00b8020000b3
:020000040000fa
:04039000b8020000af
:020000040000fa
:04039400b8020000ab
:020000040000fa
:04039800b8020000a7
:020000040000fa
:04039c00b8020000a3
:020000040000fa
:0403a000b80200009f
:020000040000fa
:0403a400b80200009b
:020000040000fa
:0403a800b802000097
:020000040000fa
:0403ac00b802000093
:020000040000fa
:0403b000b80200008f
:020000040000fa
:0403b400b80200008b
:020000040000fa
:0403b800b802000087
:020000040000fa
:0403bc00b802000083
:020000040000fa
:0403c000b80200007f
:020000040000fa
:0403c400b80200007b
:020000040000fa
:0403c800b802000077
:020000040000fa
:0403cc00b802000073
:020000040000fa
:0403d000b80200006f
:020000040000fa
:0403d400b80200006b
:020000040000fa
:0403d800b802000067
:020000040000fa
:0403dc00b802000063
:020000040000fa
:0403e000b80200005f
:020000040000fa
:0403e400b80200005b
:020000040000fa
:0403e800b802000057
:020000040000fa
:0403ec00b802000053
:020000040000fa
:0403f000b80200004f
:020000040000fa
:0403f400b80200004b
:020000040000fa
:0403f800b802000047
:020000040000fa
:0403fc00b802000043
:020000040000fa
:100400008a1f78008b1f780000000600a102880078
:10041000800478000000eb001f003700e2844400f5
:1004200054a0b4009905ba00e284440054a0b4007a
:100430009906ba00e284440054a0b4000006eb0020
:10044000476fde00fd07b200ae018800636ce1007b
:1004500003003a00eaff07000000eb000e0037003f
:10046000606ce10008003a00004deb000a05e8006e
:10047000020039003420ec000af0a0008b05e900ee
:10048000f9ff3e00040037006168e100010032001e
:100490000086eb000b00070019c7ba001905ba0067
:1004a0000e04e00003003a000a00e000dbff3a001f
:1004b00000000600fe07b200ae0288008a04780041
:1004c000f5ff37000cd0a300e20f4d001c003900ef
:1004d00089027800354dba000a05e80002003900ab
:1004e0003420ec000af0a0008b05e9000f00320078
:1004f000254dba000a05e800020039003420ec005e
:100500000af0a0008b05e900080032000c00e000b2
:100510000600320015cdba000a05e80002003900d5
:100520003420ec000af0a0008b05e9008984e80083
:1005300054a0b4000b00e000e2ff3a000000060007
:100540009902ba00055d78008b05e900f7ff3200db
:10055000c82ade00055d78008b05e900f3ff320054
:100560000c00e000f1ff320019ddba00eeff3700a9
:0c0570000040da000000fe000000050062
:020000040000fa
:10057c004f802000007f2200000188000028ef003f
:10058c000228ef000005eb00f00f2900500c88004a
:10059c00e0ff2f00900c88007405020000000000a2
:1005ac0030002000b6050200000000007e050200ad
:1005bc00000000007e05020000000000b6050200ed
:1005cc000000000088050200000000008805020001
:1005dc0000000000b60502000000000092050200b9
:1005ec000000000020002000b60502000000000002
:1005fc0080022000ce0502000000000088050200e9
:10060c0000000000880502000000000040002000ef
:10061c00ce0502000000000088050200000000006a
:10062c00880502000000000060002000ce050200da
:10063c000000000088050200000000008805020090
:10064c000000000010002000ce0502000000000099
:10065c007405020000000000740502000000000098
:10066c00f0002000ce05020000000000880502000a
:10067c000000000088050200000000007803020062
:10068c00000000008c01af004803040000000000d3
:10069c006803020000000000760402000000000065
:1006ac008c01ae0056030400000000006803020039
:1006bc000000000078030200000000004803040062
:1006cc000000000010002000ce0502000000000019
:1006dc007405020000000000740502000000000018
:1006ec000000060000082000ce05020000000000fb
:1006fc0088050200000000008805020000000000d0
:10070c00d0142000ce050200000000008805020075
:10071c0000000000880502000000000010142000fa
:10072c00ce05020000000000880502000000000059
:10073c00880502000000000020152000ce050200f4
:10074c00000000008805020000000000880502007f
:10075c0000000000b0142000ce05020000000000d4
:10076c00880502000000000088050200000000005f
:10077c0000122000ce0502000000000088050200d7
:10078c00000000008805020000000000101420008a
:10079c00ce050200000000008805020000000000e9
:1007ac008805020000000000c0142000ce050200e5
:1007bc00000000008805020000000000880502000f
:1007cc0000000000c0142000ce0502000000000054
:1007dc0088050200000000008805020000000000ef
:1007ec0050142000ce050200000000008805020015
:1007fc00000000008805020000000000e01420004a
:10080c00ce05020000000000880502000000000078
:10081c008805020000000000000c2000ce0502003c
:10082c00000000008805020000000000880502009e
:10083c000000000010142000ce0502000000000093
:10084c00880502000000000088050200000000007e
:10085c0070142000ce050200000000008805020084
:10086c0000000000880502000000000010142000a9
:10087c00ce05020000000000880502000000000008
:10088c00880502000000000040152000ce05020083
:10089c00000000008805020000000000880502002e
:1008ac0000000000f0142000ce0502000000000043
:1008bc00880502000000000088050200000000000e
:1008cc00e0142000ce0502000000000088050200a4
:1008dc000000000088050200000000000000060077
:1008ec0000082000ce050200000000008805020070
:1008fc000000000088050200000000001014200019
:10090c00ce05020000000000880502000000000077
:10091c00880502000000000070142000ce050200c3
:10092c00000000008805020000000000880502009d
:10093c000000000010142000ce0502000000000092
:10094c00880502000000000088050200000000007d
:10095c0040152000ce0502000000000088050200b2
:10096c00000000008805020000000000f0142000c8
:10097c00ce05020000000000880502000000000007
:10098c008805020000000000e0142000ce050200e3
:10099c00000000008805020000000000880502002d
:1009ac0000000000000c2000ce050200000000003a
:1009bc00880502000000000088050200000000000d
:1009cc00d0142000ce0502000000000088050200b3
:1009dc000000000088050200000000001014200038
:1009ec00ce05020000000000880502000000000097
:1009fc00880502000000000020152000ce05020032
:100a0c0000000000880502000000000088050200bc
:100a1c0000000000b0142000ce0502000000000011
:100a2c00880502000000000088050200000000009c
:100a3c0000122000ce050200000000008805020014
:100a4c0000000000880502000000000010142000c7
:100a5c00ce05020000000000880502000000000026
:100a6c008805020000000000c0142000ce05020022
:100a7c00000000008805020000000000880502004c
:100a8c0000000000c0142000ce0502000000000091
:100a9c00880502000000000088050200000000002c
:100aac0050142000ce050200000000008805020052
:100abc00000000008805020000000000e014200087
:100acc00ce050200000000008805020000000000b6
:100adc00880502000000000000000600fe712200e4
:100aec001e4088000228ed00feff3a0000000600c0
:100afc00beaa20001e4088000228ed00feff3a002e
:100b0c00000006000e0420001e4088000228ed00a4
:100b1c00feff3a0000000600be0020000e408800d8
:100b2c003ec222001e4088000228ed00feff3a0063
:100b3c000028ed00fcff3a0000000600b000200089
:100b4c000040880030c22200104088000228ed00ce
:100b5c00feff3a000028ed00fcff3a000000060002
:100b6c00f0006000c908dd000101780002e0a0007f
:100b7c00ef016000c819dd0083017100710c880061
:100b8c00720c8800730c88008e21ef0000000600a8
:100b9c000610200086006000c508dd000101780009
:100bac0002e0a000060f200086016000c419dd00e1
:100bbc00830171000302780004e0a100f60020001c
:100bcc0086026000c82add0085027100710c880065
:100bdc00720c8800730c880000000000740c8800f4
:100bec00720c8800750c88008e21ef000000060046
:020000040000fa
:100bfc00000800000400000080000000000000005d
:020000040000fa
:020000040001f9
:0457f400fffe0000b4
:020000040000fa
:020000040001f9
:0457f8009ff9000015
:020000040000fa
:020000040001f9
:0457fc003f3e00002c
:00000001FF
