:020000040000fa
:080000000002040000000000f2
:020000040000fa
:0400080010030000e1
:020000040000fa
:04000c0010030000dd
:020000040000fa
:0400100010030000d9
:020000040000fa
:0400140010030000d5
:020000040000fa
:0400180010030000d1
:020000040000fa
:04001c0010030000cd
:020000040000fa
:0400200010030000c9
:020000040000fa
:0400240010030000c5
:020000040000fa
:0400280010030000c1
:020000040000fa
:04002c0010030000bd
:020000040000fa
:0400300010030000b9
:020000040000fa
:0400340010030000b5
:020000040000fa
:0400380010030000b1
:020000040000fa
:04003c0010030000ad
:020000040000fa
:0400400010030000a9
:020000040000fa
:0400440010030000a5
:020000040000fa
:0400480010030000a1
:020000040000fa
:04004c00100300009d
:020000040000fa
:040050001003000099
:020000040000fa
:040054001003000095
:020000040000fa
:040058001003000091
:020000040000fa
:04005c00100300008d
:020000040000fa
:040060001003000089
:020000040000fa
:040064001003000085
:020000040000fa
:040068001003000081
:020000040000fa
:04006c00100300007d
:020000040000fa
:040070001003000079
:020000040000fa
:040074008003000005
:020000040000fa
:040078001003000071
:020000040000fa
:04007c00100300006d
:020000040000fa
:040080001003000069
:020000040000fa
:040084001003000065
:020000040000fa
:040088001003000061
:020000040000fa
:04008c00100300005d
:020000040000fa
:040090001003000059
:020000040000fa
:040094001003000055
:020000040000fa
:040098001003000051
:020000040000fa
:04009c00100300004d
:020000040000fa
:0400a0001003000049
:020000040000fa
:0400a4001003000045
:020000040000fa
:0400a8001003000041
:020000040000fa
:0400ac00100300003d
:020000040000fa
:0400b0001003000039
:020000040000fa
:0400b4001003000035
:020000040000fa
:0400b8001003000031
:020000040000fa
:0400bc00100300002d
:020000040000fa
:0400c0001003000029
:020000040000fa
:0400c4001003000025
:020000040000fa
:0400c8001003000021
:020000040000fa
:0400cc00100300001d
:020000040000fa
:0400d0001003000019
:020000040000fa
:0400d4001003000015
:020000040000fa
:0400d8001003000011
:020000040000fa
:0400dc00100300000d
:020000040000fa
:0400e0001003000009
:020000040000fa
:0400e4001003000005
:020000040000fa
:0400e8001003000001
:020000040000fa
:0400ec0010030000fd
:020000040000fa
:0400f00010030000f9
:020000040000fa
:0400f40010030000f5
:020000040000fa
:0400f80010030000f1
:020000040000fa
:0400fc0010030000ed
:020000040000fa
:0401000010030000e8
:020000040000fa
:0401040010030000e4
:020000040000fa
:0401080010030000e0
:020000040000fa
:04010c0010030000dc
:020000040000fa
:0401100010030000d8
:020000040000fa
:0401140010030000d4
:020000040000fa
:0401180010030000d0
:020000040000fa
:04011c0010030000cc
:020000040000fa
:0401200010030000c8
:020000040000fa
:0401240010030000c4
:020000040000fa
:0401280010030000c0
:020000040000fa
:04012c0010030000bc
:020000040000fa
:0401300010030000b8
:020000040000fa
:0401340010030000b4
:020000040000fa
:0401380010030000b0
:020000040000fa
:04013c0010030000ac
:020000040000fa
:0401400010030000a8
:020000040000fa
:0401440010030000a4
:020000040000fa
:0401480010030000a0
:020000040000fa
:04014c00100300009c
:020000040000fa
:040150001003000098
:020000040000fa
:040154001003000094
:020000040000fa
:040158001003000090
:020000040000fa
:04015c00100300008c
:020000040000fa
:040160001003000088
:020000040000fa
:040164001003000084
:020000040000fa
:040168001003000080
:020000040000fa
:04016c00100300007c
:020000040000fa
:040170001003000078
:020000040000fa
:040174001003000074
:020000040000fa
:040178001003000070
:020000040000fa
:04017c00100300006c
:020000040000fa
:040180001003000068
:020000040000fa
:040184001003000064
:020000040000fa
:040188001003000060
:020000040000fa
:04018c00100300005c
:020000040000fa
:040190001003000058
:020000040000fa
:040194001003000054
:020000040000fa
:040198001003000050
:020000040000fa
:04019c00100300004c
:020000040000fa
:0401a0001003000048
:020000040000fa
:0401a4001003000044
:020000040000fa
:0401a8001003000040
:020000040000fa
:0401ac00100300003c
:020000040000fa
:0401b0001003000038
:020000040000fa
:0401b4001003000034
:020000040000fa
:0401b8001003000030
:020000040000fa
:0401bc00100300002c
:020000040000fa
:0401c0001003000028
:020000040000fa
:0401c4001003000024
:020000040000fa
:0401c8001003000020
:020000040000fa
:0401cc00100300001c
:020000040000fa
:0401d0001003000018
:020000040000fa
:0401d4001003000014
:020000040000fa
:0401d8001003000010
:020000040000fa
:0401dc00100300000c
:020000040000fa
:0401e0001003000008
:020000040000fa
:0401e4001003000004
:020000040000fa
:0401e8001003000000
:020000040000fa
:0401ec0010030000fc
:020000040000fa
:0401f00010030000f8
:020000040000fa
:0401f40010030000f4
:020000040000fa
:0401f80010030000f0
:020000040000fa
:0401fc0010030000ec
:020000040000fa
:0402080010030000df
:020000040000fa
:04020c0010030000db
:020000040000fa
:0402100010030000d7
:020000040000fa
:0402140010030000d3
:020000040000fa
:0402180010030000cf
:020000040000fa
:04021c0010030000cb
:020000040000fa
:0402200010030000c7
:020000040000fa
:0402240010030000c3
:020000040000fa
:0402280010030000bf
:020000040000fa
:04022c0010030000bb
:020000040000fa
:0402300010030000b7
:020000040000fa
:0402340010030000b3
:020000040000fa
:0402380010030000af
:020000040000fa
:04023c0010030000ab
:020000040000fa
:0402400010030000a7
:020000040000fa
:0402440010030000a3
:020000040000fa
:04024800100300009f
:020000040000fa
:04024c00100300009b
:020000040000fa
:040250001003000097
:020000040000fa
:040254001003000093
:020000040000fa
:04025800100300008f
:020000040000fa
:04025c00100300008b
:020000040000fa
:040260001003000087
:020000040000fa
:040264001003000083
:020000040000fa
:04026800100300007f
:020000040000fa
:04026c00100300007b
:020000040000fa
:040270001003000077
:020000040000fa
:040274001003000073
:020000040000fa
:04027800100300006f
:020000040000fa
:04027c00100300006b
:020000040000fa
:040280001003000067
:020000040000fa
:040284001003000063
:020000040000fa
:04028800100300005f
:020000040000fa
:04028c00100300005b
:020000040000fa
:040290001003000057
:020000040000fa
:040294001003000053
:020000040000fa
:04029800100300004f
:020000040000fa
:04029c00100300004b
:020000040000fa
:0402a0001003000047
:020000040000fa
:0402a4001003000043
:020000040000fa
:0402a800100300003f
:020000040000fa
:0402ac00100300003b
:020000040000fa
:0402b0001003000037
:020000040000fa
:0402b4001003000033
:020000040000fa
:0402b800100300002f
:020000040000fa
:0402bc00100300002b
:020000040000fa
:0402c0001003000027
:020000040000fa
:0402c4001003000023
:020000040000fa
:0402c800100300001f
:020000040000fa
:0402cc00100300001b
:020000040000fa
:0402d0001003000017
:020000040000fa
:0402d4001003000013
:020000040000fa
:0402d800100300000f
:020000040000fa
:0402dc00100300000b
:020000040000fa
:0402e0001003000007
:020000040000fa
:0402e4001003000003
:020000040000fa
:0402e80010030000ff
:020000040000fa
:0402ec0010030000fb
:020000040000fa
:0402f00010030000f7
:020000040000fa
:0402f40010030000f3
:020000040000fa
:0402f80010030000ef
:020000040000fa
:0402fc0010030000eb
:020000040000fa
:0403000010030000e6
:020000040000fa
:0403040010030000e2
:020000040000fa
:0403080010030000de
:020000040000fa
:04030c0010030000da
:020000040000fa
:0403100010030000d6
:020000040000fa
:0403140010030000d2
:020000040000fa
:0403180010030000ce
:020000040000fa
:04031c0010030000ca
:020000040000fa
:0403200010030000c6
:020000040000fa
:0403240010030000c2
:020000040000fa
:0403280010030000be
:020000040000fa
:04032c0010030000ba
:020000040000fa
:0403300010030000b6
:020000040000fa
:0403340010030000b2
:020000040000fa
:0403380010030000ae
:020000040000fa
:04033c0010030000aa
:020000040000fa
:0403400010030000a6
:020000040000fa
:0403440010030000a2
:020000040000fa
:04034800100300009e
:020000040000fa
:04034c00100300009a
:020000040000fa
:040350001003000096
:020000040000fa
:040354001003000092
:020000040000fa
:04035800100300008e
:020000040000fa
:04035c00100300008a
:020000040000fa
:040360001003000086
:020000040000fa
:040364001003000082
:020000040000fa
:04036800100300007e
:020000040000fa
:04036c00100300007a
:020000040000fa
:040370001003000076
:020000040000fa
:040374001003000072
:020000040000fa
:04037800100300006e
:020000040000fa
:04037c00100300006a
:020000040000fa
:040380001003000066
:020000040000fa
:040384001003000062
:020000040000fa
:04038800100300005e
:020000040000fa
:04038c00100300005a
:020000040000fa
:040390001003000056
:020000040000fa
:040394001003000052
:020000040000fa
:04039800100300004e
:020000040000fa
:04039c00100300004a
:020000040000fa
:0403a0001003000046
:020000040000fa
:0403a4001003000042
:020000040000fa
:0403a800100300003e
:020000040000fa
:0403ac00100300003a
:020000040000fa
:0403b0001003000036
:020000040000fa
:0403b4001003000032
:020000040000fa
:0403b800100300002e
:020000040000fa
:0403bc00100300002a
:020000040000fa
:0403c0001003000026
:020000040000fa
:0403c4001003000022
:020000040000fa
:0403c800100300001e
:020000040000fa
:0403cc00100300001a
:020000040000fa
:0403d0001003000016
:020000040000fa
:0403d4001003000012
:020000040000fa
:0403d800100300000e
:020000040000fa
:0403dc00100300000a
:020000040000fa
:0403e0001003000006
:020000040000fa
:0403e4001003000002
:020000040000fa
:0403e80010030000fe
:020000040000fa
:0403ec0010030000fa
:020000040000fa
:0403f00010030000f6
:020000040000fa
:0403f40010030000f2
:020000040000fa
:0403f80010030000ee
:020000040000fa
:0403fc0010030000ea
:020000040000fa
:100400008f8020000e7f22000e0188000000000077
:10041000000020000000e000020032000001200087
:1004200020028800140007007f0007000000e000a1
:1004300003003a00804c2000010020000200370039
:100440000000200001002000810f70000100320038
:1004500014000700000020000000e000020032004d
:10046000000002000000000016030200000000006f
:100470000040da000000fe004440a90020002000f7
:100480000000e0000300320010002000900188000e
:100490004440a800000006008a1f78008b1f7800e7
:1004a00000000600a1028800800478000000eb0034
:1004b0001f003700e284440054a0b4009905ba003c
:1004c000e284440054a0b4009906ba00e2844400d7
:1004d00054a0b4000006eb00476fde00fd07b20039
:1004e000ae018800636ce10003003a00eaff0700f8
:1004f0000000eb000e003700606ce10008003a00dd
:10050000004deb000a05e800020039003420ec0041
:100510000af0a0008b05e900f9ff3e000400370057
:100520006168e100010032000086eb000b0007006b
:1005300019c7ba001905ba000e04e00003003a001a
:100540000a00e000dbff3a0000000600fe07b200f0
:10055000ae0288008a047800f5ff37000cd0a300b3
:10056000e20f4d001c00390089027800354dba00b9
:100570000a05e800020039003420ec000af0a0006f
:100580008b05e9000f003200254dba000a05e8008e
:10059000020039003420ec000af0a0008b05e900cd
:1005a000080032000c00e0000600320015cdba0051
:1005b0000a05e800020039003420ec000af0a0002f
:1005c0008b05e9008984e80054a0b4000b00e0002a
:1005d000e2ff3a00000006009902ba00055d7800cb
:1005e0008b05e900f7ff3200c82ade00055d7800c0
:1005f0008b05e900f3ff32000c00e000f1ff320050
:1006000019ddba00eeff3700000000000000000016
:1006100000000000000000000000000000000000da
:0c0620000040da000000fe0000000500b1
:020000040000fa
:10062c000000fa008821ef00f0002000000c880088
:10063c0080e12f00500c88000080eb00700c8800cb
:10064c0070038000c000b300700388008103800039
:10065c000000260001007000800388001003800059
:10066c00c000b300100388002103800000002600a6
:10067c0001007000200388009660a8008660a90025
:10068c008e01a9008e21a9008e41a900010037001e
:10069c0000000000004080000000e000020032007a
:1006ac007c0007000028ef00104080000000e000f4
:1006bc0003003200e0462000000001000228ef0099
:1006cc00204080000000e00003003200c048200001
:1006dc00000001000428ef00304080000000e00022
:1006ec00ebff3200a04a2000000001000628ef00ba
:1006fc00e8ff3700809fbe003200f8003400f8009d
:10070c0010002000a001880010002000900188003b
:10071c000200fa000000eb00000f7800100c8000c3
:10072c00610060000000e00012003a000100370098
:10073c001e0fe800100c8000610060000000e0005b
:10074c0004003a00700c20009e007800808f50004e
:10075c00f7ff3400800c20009e007800808f500042
:10076c0003003a0010002000004088000100370010
:10077c000028ef00100c8000620060000000e00018
:10078c0012003a00010037001e0fe800100c800028
:10079c00620060000000e00004003a00700c2000d1
:1007ac009e007800808f5000f7ff3400800c2000f2
:1007bc009e007800808f500003003a00100020004b
:1007cc0010408800010037000228ef00100c800058
:1007dc00640060000000e00012003a0001003700e5
:1007ec001e0fe800100c8000640060000000e000a8
:1007fc0004003a00700c20009e007800808f50009e
:10080c00f7ff3400800c20009e007800808f500091
:10081c0003003a001000200020408800010037003f
:10082c000428ef00100c8000680060000000e0005d
:10083c0012003a00010037001e0fe800100c800077
:10084c00680060000000e00004003a00700c20001a
:10085c009e007800808f5000f7ff3400800c200041
:10086c009e007800808f500003003a00100020009a
:10087c0030408800010037000628ef008660a90090
:10088c000080fa003400f9003200f9004f00be007d
:10089c00004006000000fa00700c80004500de00ed
:1008ac006140600000c0ea00614060000080fb0015
:1008bc00610060004500dd00710c80000150a1005a
:1008cc0001007000700c88000080fa000000060027
:1008dc000000fa00700c80004600de0061406000f1
:1008ec0000c0ea00614060000080fb006100600015
:1008fc004600dd00710c80000160a1000100700059
:10090c00700c88000080fa00000006000000fa005d
:10091c00700c80004700de006140600000c0ea00ff
:10092c00614060000080fb00610060004700dd005a
:10093c00710c80000170a10001007000700c880027
:10094c000080fa00000006000000fa00700c800025
:10095c004800de006140600000c0ea0061406000b9
:10096c000080fb00610060004800dd00710c80001d
:10097c000180a10001007000700c88000080fa005a
:04098c000000060061
:020000040000fa
:1009900000080000080000008000000000000000c7
:020000040000fa
:020000040001f9
:0457f400fffe0000b4
:020000040000fa
:020000040001f9
:0457f8009fc100004d
:020000040000fa
:020000040001f9
:0457fc003f3e00002c
:00000001FF
