:020000040000fa
:080000000002040000000000f2
:020000040000fa
:04000800cc02000026
:020000040000fa
:04000c00cc02000022
:020000040000fa
:04001000cc0200001e
:020000040000fa
:04001400cc0200001a
:020000040000fa
:04001800cc02000016
:020000040000fa
:04001c00cc02000012
:020000040000fa
:04002000cc0200000e
:020000040000fa
:04002400cc0200000a
:020000040000fa
:04002800cc02000006
:020000040000fa
:04002c00cc02000002
:020000040000fa
:04003000cc020000fe
:020000040000fa
:04003400cc020000fa
:020000040000fa
:04003800cc020000f6
:020000040000fa
:04003c00cc020000f2
:020000040000fa
:04004000cc020000ee
:020000040000fa
:04004400cc020000ea
:020000040000fa
:04004800cc020000e6
:020000040000fa
:04004c00cc020000e2
:020000040000fa
:04005000cc020000de
:020000040000fa
:04005400cc020000da
:020000040000fa
:04005800cc020000d6
:020000040000fa
:04005c00881c0000fc
:020000040000fa
:04006000cc020000ce
:020000040000fa
:04006400cc020000ca
:020000040000fa
:04006800cc020000c6
:020000040000fa
:04006c00cc020000c2
:020000040000fa
:04007000cc020000be
:020000040000fa
:04007400cc020000ba
:020000040000fa
:04007800cc020000b6
:020000040000fa
:04007c00cc020000b2
:020000040000fa
:04008000cc020000ae
:020000040000fa
:04008400cc020000aa
:020000040000fa
:04008800cc020000a6
:020000040000fa
:04008c00cc020000a2
:020000040000fa
:04009000cc0200009e
:020000040000fa
:04009400cc0200009a
:020000040000fa
:04009800cc02000096
:020000040000fa
:04009c00cc02000092
:020000040000fa
:0400a000cc0200008e
:020000040000fa
:0400a400cc0200008a
:020000040000fa
:0400a800cc02000086
:020000040000fa
:0400ac00cc02000082
:020000040000fa
:0400b000cc0200007e
:020000040000fa
:0400b400cc0200007a
:020000040000fa
:0400b800cc02000076
:020000040000fa
:0400bc00cc02000072
:020000040000fa
:0400c000cc0200006e
:020000040000fa
:0400c400cc0200006a
:020000040000fa
:0400c800cc02000066
:020000040000fa
:0400cc00cc02000062
:020000040000fa
:0400d000cc0200005e
:020000040000fa
:0400d400cc0200005a
:020000040000fa
:0400d800cc02000056
:020000040000fa
:0400dc00cc02000052
:020000040000fa
:0400e000cc0200004e
:020000040000fa
:0400e400cc0200004a
:020000040000fa
:0400e800cc02000046
:020000040000fa
:0400ec00cc02000042
:020000040000fa
:0400f000cc0200003e
:020000040000fa
:0400f400cc0200003a
:020000040000fa
:0400f800cc02000036
:020000040000fa
:0400fc00cc02000032
:020000040000fa
:04010000cc0200002d
:020000040000fa
:04010400cc02000029
:020000040000fa
:04010800cc02000025
:020000040000fa
:04010c00cc02000021
:020000040000fa
:04011000cc0200001d
:020000040000fa
:04011400cc02000019
:020000040000fa
:04011800cc02000015
:020000040000fa
:04011c00cc02000011
:020000040000fa
:04012000cc0200000d
:020000040000fa
:04012400cc02000009
:020000040000fa
:04012800cc02000005
:020000040000fa
:04012c00cc02000001
:020000040000fa
:04013000cc020000fd
:020000040000fa
:04013400cc020000f9
:020000040000fa
:04013800cc020000f5
:020000040000fa
:04013c00cc020000f1
:020000040000fa
:04014000cc020000ed
:020000040000fa
:04014400cc020000e9
:020000040000fa
:04014800cc020000e5
:020000040000fa
:04020800cc02000024
:020000040000fa
:04020c00cc02000020
:020000040000fa
:04021000cc0200001c
:020000040000fa
:04021400cc02000018
:020000040000fa
:04021800cc02000014
:020000040000fa
:04021c00cc02000010
:020000040000fa
:04022000cc0200000c
:020000040000fa
:04022400cc02000008
:020000040000fa
:04022800cc02000004
:020000040000fa
:04022c00cc02000000
:020000040000fa
:04023000cc020000fc
:020000040000fa
:04023400cc020000f8
:020000040000fa
:04023800cc020000f4
:020000040000fa
:04023c00cc020000f0
:020000040000fa
:04024000cc020000ec
:020000040000fa
:04024400cc020000e8
:020000040000fa
:04024800cc020000e4
:020000040000fa
:04024c00cc020000e0
:020000040000fa
:04025000cc020000dc
:020000040000fa
:04025400cc020000d8
:020000040000fa
:04025800cc020000d4
:020000040000fa
:04025c00cc020000d0
:020000040000fa
:04026000cc020000cc
:020000040000fa
:04026400cc020000c8
:020000040000fa
:04026800cc020000c4
:020000040000fa
:04026c00cc020000c0
:020000040000fa
:04027000cc020000bc
:020000040000fa
:04027400cc020000b8
:020000040000fa
:04027800cc020000b4
:020000040000fa
:04027c00cc020000b0
:020000040000fa
:04028000cc020000ac
:020000040000fa
:04028400cc020000a8
:020000040000fa
:04028800cc020000a4
:020000040000fa
:04028c00cc020000a0
:020000040000fa
:04029000cc0200009c
:020000040000fa
:04029400cc02000098
:020000040000fa
:04029800cc02000094
:020000040000fa
:04029c00cc02000090
:020000040000fa
:0402a000cc0200008c
:020000040000fa
:0402a400cc02000088
:020000040000fa
:0402a800cc02000084
:020000040000fa
:0402ac00cc02000080
:020000040000fa
:0402b000cc0200007c
:020000040000fa
:0402b400cc02000078
:020000040000fa
:0402b800cc02000074
:020000040000fa
:0402bc00cc02000070
:020000040000fa
:0402c000cc0200006c
:020000040000fa
:0402c400cc02000068
:020000040000fa
:0402c800cc02000064
:020000040000fa
:0402cc00cc02000060
:020000040000fa
:0402d000cc0200005c
:020000040000fa
:0402d400cc02000058
:020000040000fa
:0402d800cc02000054
:020000040000fa
:0402dc00cc02000050
:020000040000fa
:0402e000cc0200004c
:020000040000fa
:0402e400cc02000048
:020000040000fa
:0402e800cc02000044
:020000040000fa
:0402ec00cc02000040
:020000040000fa
:0402f000cc0200003c
:020000040000fa
:0402f400cc02000038
:020000040000fa
:0402f800cc02000034
:020000040000fa
:0402fc00cc02000030
:020000040000fa
:04030000cc0200002b
:020000040000fa
:04030400cc02000027
:020000040000fa
:04030800cc02000023
:020000040000fa
:04030c00cc0200001f
:020000040000fa
:04031000cc0200001b
:020000040000fa
:04031400cc02000017
:020000040000fa
:04031800cc02000013
:020000040000fa
:04031c00cc0200000f
:020000040000fa
:04032000cc0200000b
:020000040000fa
:04032400cc02000007
:020000040000fa
:04032800cc02000003
:020000040000fa
:04032c00cc020000ff
:020000040000fa
:04033000cc020000fb
:020000040000fa
:04033400cc020000f7
:020000040000fa
:04033800cc020000f3
:020000040000fa
:04033c00cc020000ef
:020000040000fa
:04034000cc020000eb
:020000040000fa
:04034400cc020000e7
:020000040000fa
:04034800cc020000e3
:020000040000fa
:10040000af8f20000e7f22000e0188000000000048
:10041000000020000000e000020032000001200087
:1004200020028800140007005d0007000000e000c3
:1004300003003a00e0e32100010020000200370041
:100440000000200001002000810f70000100320038
:1004500014000700000020000000e000020032004d
:100460000000020000000000301c0200000000003c
:100470000040da000000fe004440a900e000200037
:100480000000e0000300320000002000a00188000e
:100490004440a800000006008a1f78008b1f7800e7
:1004a0000000060091018800800478000000eb0045
:1004b0001a003700e284440032a0b4009905ba0063
:1004c000e284440032a0b4009906ba00e2844400f9
:1004d00032a0b4000006eb00476fde00fd07b2005b
:1004e000636ce10003003a00ebff07000000eb0043
:1004f0000a003700606ce10004003a00005deb0088
:100500008b05e900fdff3e00040037006168e10053
:10051000010032000086eb000b00070019c7ba008b
:100520001905ba000e04e00003003a000a00e000da
:10053000e0ff3a0000000600fe07b2009e018800be
:100540008a047800f5ff3700395dba008b05e900b1
:100550000c003200295dba008b05e900080032006a
:100560000c00e00003003a00e284440032a0b40032
:10057000f5ff370019ddba008b05e900faff3a00f4
:100580008904e800e184440032a0b40000000600c1
:1005900000000000000000000040da000000fe0043
:1005a00000000500889fbe008a9fbe008c1f780057
:1005b000670007006e00330003866c006450e100a2
:1005c0002e0032006420e100330032006150e1006f
:1005d0002f0032006120e100310032008585550096
:1005e000eb07b000090020000804200005003700d8
:1005f0000804440089844c000a00310006034300cb
:1006000087834b000001530081815b00f8ff3300ba
:100610000203be000800a0000804440089844c00c6
:10062000f6ff3900c639dd00830173000100320096
:10063000130020008904d1000884d3000998a30086
:10064000050032000800a7000300a0008904d100c3
:100650000884d3008b05e8008904d1000884d30006
:100660000001eb000281d2001300070001f0a1009d
:100670000cf0a70001f0a000460037006420e10064
:10068000480032000801be000200be00f7ff37003c
:100690006120e100430032006000b800f3ff370042
:1006a0000000200001f82700f0ff37004f89de002e
:1006b00082017800720037008100200061805500bf
:1006c0000b003d000b00200061fe2f000100e10047
:1006d0001d00340082817100610164008904d10031
:1006e0000884d3000000e800faff3a0071002000ff
:1006f0006100640003007000020060000900320025
:1007000061044400e0844c000988a5000500320023
:100710008b05e8006808e10002003a008904d10076
:100720000884d300f20f20000258e10005003d00cc
:10073000c75ddd00f907b200898075000800780008
:10074000000006000bf827008b0078000000050071
:100750000004be00890007000003be000405be00bf
:100760000200be0085000700844f750000000600ef
:100770000200be006450e100050036006420e10084
:10078000020036000968a30001003a000800be001c
:100790000160a0004f0678004f05be004f04be0068
:1007a00000000600f0ff2f00f1ff2700f9ff3700df
:1007b000889fbe008a9fbe008c1f7800e4ff070060
:1007c000ebff330003866c006450e100240032002c
:1007d0006420e100270032006150e1002200320075
:1007e0006120e100210032008b854200eb07b1005f
:1007f0000134b800003ab8000804420089844a0075
:10080000013ab8000030b8008880400009014a0071
:1008100004003300000040008180480002014900cc
:100820008b05e900c909dd00830170000100320079
:1008300013002000c814de004814dd004709de0064
:100840001200b200c808de00088470009aff07009a
:1008500001f0a1000cf0a70001f0a000cdff3700cf
:100860006120e100cfff32000801be000200be009f
:10087000f7ff37006150e100fcff3a00c9ff370085
:10088000881f7800030478000300e00007003d00a3
:1008900060001000e080180060011900e08119007c
:1008a00002003b0001f02d000300370004000700a8
:1008b00008f0a70001f0a0004f0478000000060037
:1008c000889fbe008a9fbe000082700004027100f3
:1008d00004827100260032000004be000200be0047
:1008e0006011b8006b092000950220000182cf0042
:1008f0000a0039000541b1000082cf00070039002d
:100900000541b1000982cf00040039000541b10062
:100910000882cf00010039000541b10005425200b4
:10092000120032000a003b00828171006101640004
:100930008100d1000080d3008984d3000884d300d3
:100940008b05e8000442e800f7ff3a000700370093
:100950000804440089844c0000004800818048005d
:100960008b05e9000442e900f9ff3a0052ff070055
:100970004f05be004f04be0000000600c70ade009f
:10098000f107b200f50fb20008003200e1cf4200db
:10099000020032000170a00024000500810f7000e9
:1009a000010032000408050044000500810f7000ba
:1009b00002003a00140005008502e9000000400032
:1009c00081c04800fcff3b000170a000240005002e
:1009d00080007800010178003104e000fdff3a005a
:1009e0000000510000000600e4874700889fbe0019
:1009f0008a9fbe008c1f78008e1f7800000578004b
:100a000001077800020678000e00e00001003a00bd
:100a10006e8757008a0578008b0478008905780076
:100a20003b4478000800fb00d20007000000e00013
:100a3000f9ff3a00d0c2b300804f540003003200e7
:100a400000c0e900804f540002003a008904e80029
:100a500001003700004478000c0178008e00780017
:100a600009007800290007009e8f540001003a0019
:100a70000a0f78009e0f550003003a00e00f500067
:100a8000e08f58000f003a00b2c2b300824f54000a
:100a900004003a00e00f5000e08f580015003d00c0
:100aa00008003700d2c2b300824f540011003a0050
:100ab0000200200003002800820f5000838f58009e
:100ac0000a00360020022000a0478800f0ff2f0017
:100ad000f1ff2700d2c2b300824f540005003a0054
:100ae0000000200001002800020037006000100014
:100af000e08018004f0778004f0678004f05be00d1
:100b00004f04be004f00b10000000600ee87470012
:100b1000889fbe008a9fbe008c9fbe008e1f7800fb
:100b2000f0b79f0001067800820578000004780085
:100b3000080578000a047800b84678000d00fb002c
:100b40008c0007000000e000f9ff3a00d0c2b300bb
:100b500080cf56000300320000c0e90080cf56006d
:100b600002003a000a05e8000100370080467800dc
:100b70000b00e00005003500e18f55000300320056
:100b800040022000808f5500060034006044b80009
:100b90000c00e000700032007fb09700000e78007b
:100ba0006d0037000b00e0000e003200f08f5500a2
:100bb0001a003a0000c3b3009a4f100017003a0021
:100bc0001a40900081c7b300814f500003003200eb
:100bd00081c5b300814f500010003a000a85e8003b
:100be0000e003700ab00200000c3b3009a4f100086
:100bf0000a003a001a40900081c7b300814f5000ac
:100c0000040032008b00200081c5b300814f5000ea
:100c100002003a000a85e8000b0120000a00780073
:100c2000000278000400780001c3b300b0cf1000c8
:100c3000fbff3200040778006044b800b4b79f009f
:100c40000d003700c185200081405000c1ef9f009a
:100c50006159b9000800be00ca0807004fea9700b2
:100c60000401fb00cf91de00c8b79f00d9b79f00f9
:100c700002044000838448008e0278003e00fb009e
:100c800085bf9f00430007000b01780080007800bb
:100c9000c0852000ab0407008fba97000000e00079
:100ca000e8ff3a003fb29700850f550005003a0073
:100cb0006044b8000c00e00027003200ffb297004b
:100cc00024003700048252001088200060c07d009c
:100cd0000000fb00000252001700330011003a0030
:100ce0004fe997000200fb00cf80de0000005400b7
:100cf00081805c00800f5400818f5c000900390006
:100d00006159b90085bf9f008b0807008fba970013
:100d10004fb19700dfb19700820f5000838f5800ca
:100d20000500320020022000a04788000084eb006c
:100d30008084eb0005003700d0c2b30080cf56009e
:100d400002003a0060041400e0841c000c00e00083
:100d500001003200050e78000800be004f07780041
:100d60004f06be004f05be004f04be00ef00b100ad
:100d7000000006006900e100040035006d00e1009c
:100d8000030034000002b100010032000000050041
:100d900010000500800078001104b1000300350048
:100da0009101b10001003c000050a00000000600cd
:100db000b04780000000e0000100320000000100a8
:100dc000408f200000000600881f78000204780091
:100dd0000801780065040700080040004f0478000f
:100de000000006000000fa00881f78000004780068
:100df000ea8157003fb9970088007800406e2000d4
:100e0000070007000000e000020035008040eb0012
:100e1000017478004f0478000080fa00000006009a
:100e20006200fa00889fbe008a1f780000057800e3
:100e300081047800020478008300780080f92f0094
:100e40000f004000710607009a979f00a9979f0026
:100e50000000eb00b09f9f001885fb008a04fb0098
:100e60000a05ea004f55de0050022000808f540032
:100e70000d003200e10f55000b003a000a01780026
:100e8000880078002f9097009f9197000300010041
:100e9000a0979f000000e0008e0032003f9897006e
:100ea0000000e800b09f9f000a04440050022000a8
:100eb000808f5400040032000900e000e6ff3a0091
:100ec0003f989700840037000000eb00909f9f0040
:100ed000809f9f00f0979f00e0979f00d0979f0012
:100ee000c0979f0007003700c18d2000010050000f
:100ef00000004000018d200061007800df9897001d
:100f000001007000d09f9f008804780009047800d9
:100f1000384578008a00fb00c08d20001a040700c5
:100f20000000e000f0ff3a00a1c2b300814f55007d
:100f30000e003a00cf8897000180e900c08f9f0023
:100f400010007800c09f9f000000e00005003d00f9
:100f50000000ea00c09f9f005f9897000020a0005b
:100f6000d09f9f000904e8000f003700c09f9f003a
:100f70000000eb0005003700f2ff2700820f500051
:100f8000020032006a01b9000280400009047800c2
:100f900088047800b900fb000103b100e98f50001c
:100fa000f5ff3600c09f9f00e0c2b300984f1000cd
:100fb000020032000080eb0019003700a0c2b3002d
:100fc000d84f100007003a00cf8897000180e90051
:100fd000c08f9f0010007800a09f9f000804e800c9
:100fe000100037000000eb00a09f9f0088007800f1
:100ff00005003700f3ff2700830f50000200320086
:101000006a02b900040041000104780088007800f9
:101010003101fb000203b100e90f5100f5ff36007a
:10102000a09f9f00984478008900fb00808c2000de
:10103000d50307000000e000020032000804e800c9
:10104000010037008044eb00c97f9f0080c6b300d9
:1010500080cf540004003a0098cf14000a003a00f0
:101060006640500006003700c0c6b30080cf540071
:1010700005003a0098cf140003003a006540400094
:10108000c07f9f000804e8001801fb00e3fb2f006d
:101090008f81410081f92f008f804000a0f92f003f
:1010a0000f004000100007000000e00009003a00b7
:1010b000e1fb2f008f804000a0f92f000f004000bf
:1010c000160507000000e000020035000804e800f3
:1010d00061ff37000080eb004f0578004f04be0031
:1010e0000080fa0000000600889fbe008a1f78007a
:1010f00000047800824478000305780070c6b300cd
:1011000080cf54001a003c0000c0e90080cf54009a
:10111000c5003d006d40500080cf54007400320087
:101120000b003c007140500080cf54002d013c006a
:1011300000c0e90080cf5400bb003d0050c2b300a6
:1011400080cf5400240132007c404000050037006d
:1011500030c6b30080cf54001a0032001e003c009d
:1011600000c0e90080cf54001e013a00ae003700f5
:10117000f0c6b30080cf54005d00320007003c0091
:101180006640500080cf540013003200654040009c
:1011900080cf540013013a00cc00370050c7b30091
:1011a00080cf5400520032006340400080cf540092
:1011b0004f00320002c7b30082cf540009013a0049
:1011c000f70037001181e90082087800780090006c
:1011d000127578000901370028609000c2c6b3007c
:1011e000824f500007003a0011017800640051005e
:1011f000800878001000be004f89de008201780070
:101200001100370012c7b300824f500003003200b4
:10121000a2c6b300824f500006003a0011017800c8
:1012200068005100800878005001be004000be00f8
:10123000050037001180e900800878001000780070
:10124000cf80de006109b900009cbe000294be00a0
:101250002862900085c6b300854f52000d00320011
:1012600025c6b300854f520004003a000000fb0081
:10127000cf80de006109b9000800370045c7b30020
:10128000854f520003003200e6c24200854f5200f3
:1012900004003a00cf80de006109b900009cbe0066
:1012a0000294be003802be002803be007800900001
:1012b000d1c2b300e00f5200e08f5a00e00f5b0094
:1012c000e08f5b0008003500881090000118a30033
:1012d00002003200b1c2b300030037000108a300ce
:1012e0004c00320001c2b30001757800470037009e
:1012f00028609000c2c6b300824f500006003a003a
:101300001101780064005100800878001000be00d0
:101310006011b8001100370012c7b300824f5000af
:1013200003003200a2c6b300824f500006003a000c
:101330001101780068005100800878005001be005b
:101340004000be00050037001180e90080087800e9
:10135000100078008000eb006011b800009cbe0017
:101360000294be002862900085c6b300854f5200eb
:101370000d00320025c6b300854f520004003a002c
:101380000080fb008000eb006011b800080037000f
:1013900045c7b300854f520003003200e6c2420049
:1013a000854f520004003a008000eb006011b80045
:1013b000009cbe000294be00081090000038a300fc
:1013c000140032003800be002801be00e00f5000bb
:1013d000e08f5800e00f5900e08f59000d003200f7
:1013e00080c7b30080cf54000300320080c5b30033
:1013f00080cf540007003a007800900001c3b3008a
:10140000017578000000e800097578000000e80028
:101410007004980078009000000545006a04980068
:10142000894078006900370028619000c0c4b3008b
:10143000804f510006003a00110178006800510009
:10144000800878005001be004000be000500370053
:101450001101780064005100800878001000be007f
:10146000f0050700009cbe000294be00b80090008a
:10147000780090000100e00002003d00d1c2b300fe
:1014800008003700881090000118a3000200320005
:10149000b1c2b300030037000108a300040032000a
:1014a00001c2b300017578000000e80070049800e4
:1014b00078009000000545006a0498008900fb0050
:1014c00008007800530007004e00370028619000a4
:1014d000c3c6b3001180e900834f510024003200dd
:1014e0000a003c00e4c15100834f51002700320044
:1014f00083c1e800834f51001500320020c6b300bd
:10150000804f510020003a000a00370043c7b30063
:10151000834f51001d003200e6c14100834f51004e
:101520001a00320010c7b300804f510016003a0075
:10153000060037001180e90080087800100078006c
:10154000485c9000084878002e0037001180e900c0
:101550008008780010007800680a9000cfa2de00b2
:10156000612bb9000498be000690be00250037002c
:10157000800878001000780068099000cf91de00a4
:101580000288be001f0037001180e9008008780043
:1015900010007800680c90000808780019003700e7
:1015a0001181e9008208780012027800cfa2de00e3
:1015b000612bb900049cbe000694be00f8009000a8
:1015c000010545006a049800804078000800780012
:1015d000a30207000b00370078009000097578001f
:1015e0000600370078009000000545000904e0007f
:1015f00001003a0059c2b300094d78000000e8002c
:10160000700498000000eb004f0578004f04be0006
:10161000000006002f04b000889fbe008a9fbe0015
:101620008c9fbe008e1f78000007780081f79f0016
:101630003e04be002e05be005e0890000000e000e3
:1016400002003d0060002000500f98008e007800de
:1016500020fb2f000f00400057020700e20f500050
:101660000a003a0030002000100f9800b1c9b30002
:101670000ff097008140400080802000e1cf5000b3
:101680000d003e00408020000b0037000000e0000d
:101690000f00340030002000100f9800b1c9b300d3
:1016a0000ff197008140410000812000e1cf500000
:1016b00001003e00c0802000ee009000b04878009d
:1016c000b06878001040780090409800f300370030
:1016d0000000e00005003a0022fb2f000f0141004e
:1016e000001978008001eb00e70037006022b800a5
:1016f0006033b8000800be000a01be009104070074
:101700000000e00001003d000bf0a200705927002e
:101710009f9897000088b900026a280013002000f3
:10172000ec040700640650009c9f9f0013003b00e0
:1017300063061600c0ff2f00000666008c01ea0059
:10174000939f9f004d8120000800be000a01be004b
:10175000070037000c08a300030032003d02be0062
:101760002d03be007d0507000c86d100e8864600eb
:101770000c00e000f7ff3c00180037000c00e00010
:1017800018003200c0ff2f00000666009c9f9f00db
:101790004d8120006000b8000200200003ff2300fc
:1017a000070037000c08a300030032003d02be0012
:1017b0002d03be00690507000c86d100e8864600af
:1017c0000c00e000f7ff3c000002be000203be0078
:1017d0000800be000a01be00640407000004be0049
:1017e0000205be00de08900060c6b3000ff297004d
:1017f000804f5200040032006000200062c4b30039
:10180000824f520002003a009f9a97006a8042007d
:1018100081004000f1b79f0001037800f30f5300ef
:101820000200340037012000f7b79f0000c3b30067
:10183000c0779f0056fb2f000f0343000e00780077
:10184000a0b79f00060778003d0037000800be00e3
:101850000a01be00120507000006be007fb1970016
:1018600068015100f2b79f004240a9000c0034000b
:10187000370507000002be000203be000800be00dc
:101880000a01be00aa0507006022b80046782d00b4
:1018900077192400310507000004be000205be00d0
:1018a000e80047008e0020000802be000a03be00c8
:1018b000b4b79f00c5b79f00d6b79f00e7b79f009a
:1018c0000c01be00010478000c003700a4002000c9
:1018d00005002000c0fd2f000f004000840107001c
:1018e0006fa89700ffa897000fb197009fb19700ce
:1018f00005c3b300056441000001be00e00f5100c4
:10190000e08f5900030034000e07e900e10f4700a3
:10191000eeff3a00880078003fb49700cfb49700fc
:101920005fb59700efb597000200370000c3b30022
:10193000806078000e07e900fcff3b0068874000ec
:101940007fb397000600e000070034006022b80073
:101950006033b8000800be000a01be00fe030700a5
:101960000000e000b9ff3c000e0378002fb797009d
:1019700051fb2f008f804000010353009f9b970075
:1019800067804300909f9f00020037000603e90034
:101990000000e900010178008200780003c3b30071
:1019a000b1cf1100f9ff3200909f9f00de09900037
:1019b00061c6b3000ff29700814f5200030032005e
:1019c00061c4b300814f520002003a000000e800f9
:1019d0000a0037001000200051c6b3008ff29700b4
:1019e00081cf5200050032000540780050c4b2009b
:1019f0000080fb000000e9004f00de008301400092
:101a0000868f510001003400860178000300e00059
:101a10001d00350000c3b300868f510006003d0055
:101a200062c279006940400041c3b300814f520057
:101a300001003c00694050008300e9008100410042
:101a400001003700840178000302e90001037800f7
:101a5000a142780080cf5200faff320091c3b30058
:101a6000814f500001003a00054be8000400e000ff
:101a700005003d000201e9008301e8001f9b97007b
:101a80000603e800969f9f008ff397008700fb00f6
:101a90001f9a97000e007800060007004f07780095
:101aa0004f06be004f05be004f04be002f04b1001c
:101ab00000000600f0874700889fbe008a9fbe0096
:101ac0008c9fbe008e1f780000047800814478004f
:101ad0000205be00040678000b00e00002003c0096
:101ae0001b0020008a8f200060c6b30080cf540006
:101af0000e00320060c4b30080cf54000b003200ef
:101b000070c6b30080cf54000300320070c4b3002d
:101b100080cf540081003a00e40f46007f0035007a
:101b200058089000800f56007c003d000c06e8002d
:101b300060c6b30080cf54001000320060c4b30010
:101b400080cf54000d003200081090000038a30030
:101b500004003a0058089000808f550001003d00b5
:101b60005b0c9800580890000c005000500c980036
:101b700002003b000000eb00500c98001808900099
:101b8000e80090000c00e00026003c0002c3b30017
:101b9000827078000000e800100c9800d8089000cf
:101ba0000100e00003003c00881090000138a30011
:101bb00005003200e8009000e2c2b30082707800b5
:101bc0000000e800100c9800580890008c00ea0013
:101bd000810f500001003d000006ea008c00ea0081
:101be000210c9800000646005c0c98008b0f5600f4
:101bf000010034000b0678003c0c9800e8009000cf
:101c000018089000008040000c0178008a007800dd
:101c1000d6000700580890000c0650004c0c9800a5
:101c2000900037008c8f550018003d000080400068
:101c30000b0178008a007800cc000700180890009b
:101c400000804500100c98008b0556002b0c980066
:101c5000d80890000100e00003003c0088109000cc
:101c60000138a30006003200e8009000e2c2b30091
:101c700082707800380890000000e800300c98006e
:101c800058089000400c9800760037000080400013
:101c90000c0178008a007800b40007001808900052
:101ca00000004600100c98008c855500d808900064
:101cb0000100e00003003c00881090000138a30000
:101cc00005003200e8009000e2c2b30082707800a4
:101cd0000000e800100c980058089000808f550014
:101ce0000100340080057800e8009000180890009a
:101cf000008040008c0045000b0178009b0007002d
:101d0000180890000b004000100c98005808900034
:101d10008b0550002b0c98005200370018089000db
:101d2000e80090009a7078000000e800100c98001d
:101d3000d80890000100e00003003c0088109000eb
:101d40000138a30005003200e8009000e2c2b300b1
:101d5000827078000000e800100c9800580890008d
:101d60000000e000100034008b05e900808f550072
:101d70000100340080057800e80090001808900009
:101d8000008040008a00e8000b017800770007001f
:101d9000180890000b004000100c980058089000a4
:101da0008b0550002b0c9800e8009000180890005c
:101db00000804000095878000007e8000c00e000af
:101dc00004003500b1c2b300014878008e047800e9
:101dd00004003700d1c2b300014878008e047800b7
:101de0000c06ea007d8557008006eb0009003700ed
:101df000a20020008c00780072805700310007009c
:101e00007fb097008fb89700016d780000067800ca
:101e10008d06e8000c00e000f5ff3c000d00e0003e
:101e200009003a008e04780000c3b300805c78009b
:101e3000050037008d06e900fc80570061c07e0078
:101e400002c3b300825c40000d00e000f9ff3c00db
:101e5000e800900018089000008040008084540042
:101e6000390c98000810900074006000f00f5000ca
:101e70000e003a0098089000780090000080400022
:101e8000a808900001004000b80890000100400040
:101e9000c808900001004000f8089000810f500031
:101ea00002003d0000805000000c98004f077800b1
:101eb0004f06be004f05be004f04be000f01b1002b
:101ec000000006008002780001037800110009007c
:101ed0000203d80080017800830a78000299b900d3
:101ee00002015300920298000500780000000600ed
:101ef000881f78008a9fbe008c9fbe000004780077
:101f00000205be000406be000401be000a00be00b9
:101f1000f0020700008cbe000c01be00190407008f
:101f20000005550081855d002a0498003b04980057
:101f3000080078004f06be004f05be004f04780031
:101f40000000060003003700b0cf1000050032008b
:101f50000201e900800178000200e000faff3a0087
:101f600000000500030078000000060080017800f2
:101f700002003700b15978000201e9000200e000d8
:101f8000fcff3a0000000600020037000304e000f6
:101f9000060032000001780002007800b0417800ad
:101fa00081cf5100f9ff3a00010037000001eb003a
:101fb0000200780000000600889fbe000004780040
:101fc000e68440001900d0004500de00f27f2000ca
:101fd000820f500010003a00000ceb0099047800ca
:101fe0006f816400200020001b003a002101900056
:101ff0000200e00018003a00110190000200e00029
:1020000015003a00100020001100e000120032001c
:1020100020002000100037000000e00004003a001b
:1020200001007800fb0107000000e00008003c0010
:10203000f20028001901610001fe2300810c7100eb
:1020400021c02f00010c40000080eb00020037008f
:10205000000ceb000000eb004f04be000000060087
:10206000fc874700889fbe008a9fbe008c9fbe00f1
:102070008e1f78000006780080c5b30080cf500026
:102080000a0032007740400080cf50000a00320042
:102090006940400080cf50000b003200708b200060
:1020a00080bf9f00ae0020000a003700628a200037
:1020b00082bf9f0006003700738b200083bf9f0004
:1020c0008e00200003003700748b200084bf9f0027
:1020d0000e0120003c02be002c03be000605be001f
:1020e0000404be0040c6b30080cf5000030032009d
:1020f0006540400080cf50000b003a00e00f5200d6
:10210000e08f5a00e00f5b00e08f5b0006003d00af
:102110006000b8006011b8000404500085845800c5
:102120000605590087855900e80f57000400320062
:1021300040002000f00f570038003a00010037003f
:1021400030002000e00f5400e08f5c00e00f5d00e5
:10215000e08f5d0004003a00dc0890008d01200053
:102160000100e000060032008e00e9008880600077
:102170008fba9700e5c07800f1ef9f007d01200045
:10218000800078008100e900050033008b05d10054
:102190000a85d3008984d3000884d300f9ff37006f
:1021a000089ebe000a96be00120037008d06e900a8
:1021b0008e00e900848060000fb99700e2c17800ca
:1021c00082fd2f000f01410003f17e0080007800a6
:1021d0008100e900050033008783d1000683d30026
:1021e0008582d3000482d300f9ff3700049ebe002d
:1021f0000696be003c02be002c03be00e00f52005b
:10220000e08f5a00e00f5b00e08f5b008b00340032
:102210000d00e000e5ff3c00880037002c609000d6
:1022200081c6b300814f50000b00320006003c0015
:102230000004e00008003200e6c05000814f50006a
:102240004e003a0004003700c1c6b300814f500071
:102250004a003a00210037000800e00004003a007c
:102260005c0890008d0120000000e00006003200b4
:10227000110009000e84d8000fb99700e2c0780061
:10228000f1ef9f007d012000110009000e84d800ad
:102290000a003700110009000e04d8008d06e9007d
:1022a0000e81b900020454008fb8970061417c0090
:1022b00081fd2f008f80400082f07e0000047800b6
:1022c0000800e000020032000d00e000f1ff3c00d9
:1022d000cfc4de00614db90025003700e00f540087
:1022e000e08f5c0004003a005c0890008d01200043
:1022f0000000e000070032006171b9000800be0074
:102300001d0307008fb99700e3417800f3ef9f00aa
:102310007d0120006171b9000800be0006030700be
:102320000b0037006171b9000800be00e901070029
:102330008d06e90000f1b900020454000fba9700bd
:10234000e4427c0084fd2f000f02420005f27e0073
:102350000004be00e00f5000e08f58000200320081
:102360000d00e000efff3c004fcdde008a05780055
:10237000089ebe000a96be0030003700e00f5400f1
:10238000e08f5c00e00f5d00e08f5d0004003a002c
:102390005c0890008d0120000000e0000900320080
:1023a0006172b900612bb9000800be000a01be00cd
:1023b0009a0307000fba970064427800f4ef9f0079
:1023c0007d0120006172b900612bb9000800be00d8
:1023d0000a01be008a0307000d0037006172b900d0
:1023e000612bb9000800be000a01be008f03070080
:1023f0008d06e90000f2b900040454008fba97007a
:1024000065427c0085fd2f008f82420084f27e00b1
:10241000009ebe000296be003c04be002c05be001d
:10242000e00f5400e08f5c00e00f5d00e08f5d0086
:10243000020034000d00e000e8ff3c00e80f570008
:1024400010003a000c1090000038a3000d0032007c
:10245000f78f560006003e0085fd2f008f82420058
:10246000e5c07e0000c3b30080cf500005003200fd
:102470008d06e90002c3b30081fd2f008f8040006c
:1024800082f07e0078811600120e98006c00900099
:1024900083fd2f008f8141008d804100b3fe070036
:1024a0001c089000dc089000810f500006003d00e1
:1024b00000805000000e98000c1090000040a10019
:1024c000001698000f0037000100e0000d003d00ed
:1024d0008c109000f4806000f08f500009003a00ea
:1024e0007c099000fc009000810051000c099000d4
:1024f00082805000008050004240a900010034005a
:10250000000e98004f0778004f06be004f05be0032
:102510004f04be00cf01b100000006000400fa0025
:10252000889fbe008a9fbe008c1f78000004780040
:1025300001067800f80d9000780090008085550025
:102540000808900080855500180890008085550087
:102550002808900080855500380890008085550037
:1025600048089000808555000002220090bf9f001f
:1025700000032300a0bf9f00081090000028a300c4
:1025800015003a000b00e000130034000b05780042
:102590008a047800e20f550001003600290020006f
:1025a000c801900009017800ee80570058009000a3
:1025b00003000100500498000000e0008c0032008d
:1025c0006808900009004000600c9800090555005b
:1025d0004240a900eeff3c00780190000200e000bc
:1025e0000c003400c80190008c0078005800900066
:1025f00003000100500498008080eb000000e00020
:102600007c003200e80890007800900000804000d4
:10261000600c9800880c90000900e0001100340064
:1026200009057800e28f5400010036002a002000de
:10263000c80190000a017800ec8057005800900013
:1026400003000100500498000000e0006800320020
:10265000680890000a004000600c98008a845400ca
:10266000edff3700180990000200e0000c00340074
:10267000c8019000e800900058009000030001009d
:10268000500498008080eb000000e0005900320008
:10269000e80890001808900000804000600c980046
:1026a000a80c90000900e000110034000905780032
:1026b000e28f5400010036002a002000c80190007b
:1026c0000a017800ec8057005800900003000100d8
:1026d000500498000000e0004500320068089000b7
:1026e0000a004000600c98008a845400edff370017
:1026f000380990000200e0000e003400e80090006d
:102700001808900080804000c80190005800900098
:1027100003000100500498008080eb000000e000fe
:1027200034003200e8089000380890000080400033
:10273000600c9800c80c90000900e0001100340003
:1027400009057800e28f5400010036002a002000bd
:10275000c80190000a017800ec80570058009000f2
:1027600003000100500498000000e0002000320047
:10277000680890000a004000600c98008a845400a9
:10278000edff3700081090008000eb000028a30048
:10279000180032000b00e000160034008b047800b3
:1027a00009057800e28f5400010036002a0020005d
:1027b000c80190000a017800ee8057005800900090
:1027c00003000100500498000000e00008003200ff
:1027d000680890000a004000600c98008a84540049
:1027e0004240a900eeff3c008000eb0001003700f2
:1027f0008080eb00010078004f0678004f05be0096
:102800004f04be000080fa000000060001087800b6
:1028100000000600e60040001101780005002800d5
:10282000850261006f0161008208780002003200b9
:102830001200200011003700a001900012002000bb
:102840000300e0000d003a00900190000300e0005a
:102850000a003a001000e00008003a003600370095
:10286000640340009608780080017800530b7800dc
:102870009009780004087800700151001102780076
:102880000400e000f6ff320013003700640240004d
:10289000140378004f33de00838141008308730006
:1028a00080017800d3037800cf3bde00140378006a
:1028b00006034300068a73001302780004024200f4
:1028c000100378004f33de00860972009001780013
:1028d000038841000201e90091017800ef8f510067
:1028e000eaff3600100037008001780053037800bb
:1028f0004f33dd001002d100040873006402400071
:1029000094037800cf3bdd001303d1008689730068
:10291000110378004f33dd009401d100030a7300e6
:102920009108d1000201e80091017800ff8f510069
:10293000edff3e00ef886100918872000200780090
:10294000000006008f1fd100130307008f87e900e6
:102950000000e00000000600809feb000e0307006f
:102960008f87e9000000e000000006002800fa0060
:10297000889fbe008a9fbe008c9fbe0003866b00ae
:102980008f0007006400e100440032006408e100a9
:102990004a0032006100e100460032006108e100b7
:1029a00049003200ec0647006000b8003d02be005e
:1029b0003d03be00f48657006011b8003d04be0020
:1029c0003d05be007d0320000b0037000000a00085
:1029d0008d06e900130032000402420085824a009d
:1029e00006034b0087834b000000400081804800b5
:1029f00002014900838149000802520089825a007d
:102a00000a035b008b835b00f0ff3b00080242007f
:102a100089824a000a034b008b834b008d06e90034
:102a2000edff3a008482720086827200f707b200de
:102a30008782720001003200150020001e04900001
:102a40003e0b900006035400e63fb0000368a3006d
:102a5000070032000000a7000500a0008301d1009c
:102a60000281d3008180d3000080d3000603e800f8
:102a70008301d1000281d3008180d3000080d30084
:102a80000002eb000482d2002100070003f0a10045
:102a90000cf0a70003f0a0005d00370064024700bf
:102aa0006408e100570032003400be003401be006b
:102ab000f6ff37006108e100520032006011b800f3
:102ac0006000b800f1ff370003ff2700020020007c
:102ad000fbff3700839f68000100e00002003d001b
:102ae00060001000e08018000300e00002003d00dc
:102af00060011100e08119000f0107004f00e000a4
:102b000002003b0060001000e0801800000006009a
:102b10001800200057002000080453000d003d005d
:102b20000600200097fc2f000740e1001e00340043
:102b300084827200610260008301d1000281d300af
:102b40008180d3000080d3000804e800f8ff3a0039
:102b50004700200061046000050474000404640060
:102b60000d00320061004000e08048006001490033
:102b7000e081490003b8a500070032000603e80021
:102b80006538e10004003a008301d1000281d300de
:102b90008180d3000080d300f87f20000830e1005e
:102ba00003003500080378006000b8006011b80029
:102bb0004433dd00f300b20083017300000006001f
:102bc000680447000294be000094be00fc04470065
:102bd0008694be008494be0009007800b702070006
:102be00008007800b502070099007800814f700056
:102bf0000b003b000800be00900207004f00b10030
:102c000003003700f3ff2700f2ff2f006110b90027
:102c10004f06be004f05be004f04be000080fa0004
:102c2000000006008103780054f707000001be0091
:102c30006000b8000478a30013003a006220e100ad
:102c400015003e000d0039008301d1000281d30040
:102c50008180d3008301d1000281d3008180d30021
:102c60008301d1000281d3008180d3000538b000f8
:102c7000c42add00f300b2008381720007f0a700d0
:102c800003f0a00000000600f3ff2700f2ff2f0072
:102c90006110b900fbff370003ff2700f7ff370083
:102ca0001400fa00889fbe008a9fbe008c9fbe0061
:102cb0000004be000205be00680047000a90be0086
:102cc0000890be007d0207000070a7000bf0a10075
:102cd000304320009e02900080825200b0fe2f0000
:102ce0000028e10011003d00b0fc2f000028e100a9
:102cf000150034001e0990008e0890007e009000a0
:102d00000501b0000201d1008180d3000080d30012
:102d10008502e800fbff3a000b00e000bcff3b002f
:102d200060001000e0801800b9ff3700f0ff2f00ae
:102d3000f1ff27000b00e000b5ff3b000100280079
:102d400000002000b2ff37006000b800b0ff37007d
:102d50004f89de00820178007f0237002800fa00e8
:102d6000889fbe008a9fbe008c9fbe0003866b00ba
:102d700093ff07000028a30064003a000128a30085
:102d800067003a000008a30062003a000108a300af
:102d900065003a001e009000be08900081064000c9
:102da000ed3fb100f4805700ee019000111ab80019
:102db0008e099000311bb8009e099000311cb800ac
:102dc000511db800f485570046000700fe01900031
:102dd0003a0007008b85e8003e0007008e0990004e
:102de00040000700ee019000340007008b85e800ea
:102df000380007008e099000400007009e099000ef
:102e00001b18b800890440000a854800fe019000a4
:102e1000340007008b85e80038000700ee019000c1
:102e2000300007008e0990001b18b800890440008c
:102e30000a8548000a98a30008003a0004024200ec
:102e400085824a0006034b0087834b0008044c0030
:102e500089844c000a054d008d06e90084827200c9
:102e6000850273004c3add008502720001003200d9
:102e700015002000443ade001400b2004538de00a0
:102e8000cb45dd000b007000c540de00cb4ddd0002
:102e90008b8070004549de00cb55dd000b017100d1
:102ea000c551de000d03780019ff070003f0a100f3
:102eb0000cf0a70003f0a00055ff37001b18b80066
:102ec0008502400006834800e0834b0060044c000c
:102ed000070037001b18b80006034000878348002e
:102ee000faff37001b18b800870340000884480029
:102ef000e0844c0060054d00000006001b18b8007f
:102f00000804400089844800faff37000108a30044
:102f10003cff3a005800be005801be00e3ff3700f6
:102f20000008a30037ff3a0009047800f9ff3700d2
:102f300007f0a2001b0137006022b8000602200043
:102f40000000d0008180d2000482d2008582d200ad
:102f50000000a0000202520083825a0003003100e8
:102f60000202420083824a000000a1000603e90039
:102f7000f3ff3a0000000600efff07000400be0068
:102f800000000600020ab900001bb9000200b800e8
:102f9000810042008100430000000600889fbe00bf
:102fa0008a9fbe0030044200b0844a0030054b00c6
:102fb00090854b006000b1000898be000a90be00ea
:102fc0000440e10005c8e10006d0e10007d8e100b7
:102fd00002003100680040001008e8004f05be0004
:102fe0004f04be0000000600889fbe008a9fbe00fe
:102ff0003004be002005be000418540005985c0093
:1030000006185d0007985d00110020000440e100f3
:1030100005c8e10006d0e10007d8e1000100390051
:103020008000eb00108810004f05be004f04be006a
:10303000000006001200fa00889fbe008a9fbe00b2
:103040008c9fbe00e0b79f00f1b79f0082bf9f003a
:1030500093bf9f000605be000404be000000eb0005
:10306000d0b79f00c0b79f00b0b79f00a0b79f0028
:1030700090b79f000006eb005fb19700cfb09700bc
:10308000820141003fb097000200e00004003d00d3
:10309000370007007e805700c0ff0700030037009d
:1030a000330007007e805700cfff0700dfb6970090
:1030b0000d00e0000c0035006fb29700ffb29700e2
:1030c0000fbb97009fbb970010002000010020005d
:1030d0006011b80000027200818272000203730066
:1030e000838373001b0007000c06e8000104200026
:1030f000810f5600e0ff3a000d00e00004003d00a3
:103100000802be000a03be007e805700a3ff07002e
:103110005fa897000000e00005003a001fb297008a
:10312000afb297003fb39700cfb3970009000700f5
:103130006fb09700ffb097000fb997009fb9970045
:103140004f06be004f05be004f04be000080fa00cf
:10315000000006000100070000000600a4b79f0061
:10316000b5b79f00c6b79f00d7b79f000000060005
:103170004f09de0082817100b3b79f004f01de006e
:103180008180400082807000a1b79f008fb09700bf
:103190004f09de00000040000200700090b79f0061
:1031a0007fa897004f01de00818040008280700080
:1031b00081b79f000d0007004f3ade00000040007d
:1031c00004007000f0af9f000800070004024200f6
:1031d00085824a0006034b0087834b00dfff070010
:1031e0000802be000a03be00000006002fb29700ce
:1031f000bfb297004fb39700dfb3970000000600ff
:10320000881f780018002000881f780089ff0700b9
:103210008f87e9004f04780000000600801feb0054
:1032200084ff07008f87e90000000600889fbe002a
:103230008a9fbe00e00f5000e08f5800e00f590059
:10324000e08f59000c003d006044b8006055b800a4
:103250000000540081805c0002015d0083815d00fc
:10326000180020001500070008003d0018000700a6
:103270000004eb00050037000004eb000f0007001e
:1032800002003d001200070018002000dcff0700cc
:103290000800e000060032006022b8006033b80089
:1032a0000000520081805a0002015b0083815b00b4
:1032b0004f05be004f04be0000000600e00f5200a4
:1032c000e08f5a00e00f5b00e08f5b00000006001b
:1032d0006044b8006055b8000402540085825c0068
:1032e00006035d0087835d0000000600889fbe0026
:1032f0008a9fbe008c1f7800e00f5000e08f5800be
:10330000e00f5900e08f59000d003d006044b80007
:103310006055b8000000540081805c0002015d002f
:1033200083815d001c0020000820e10009a8e10065
:103330000ab0e1000bb8e1000d003d0008003700c5
:103340000006eb00e00f5200e08f5a00e00f5b0038
:10335000e08f5b0006003d006044b8006055b80097
:103360000402540085825c0006035d0087835d00d3
:10337000aaff07000c00e000060032006022b8003f
:103380006033b8000000520081805a0002015b00e7
:1033900083815b004f0678004f05be004f04be00de
:1033a000000006002800fa00889fbe008a9fbe0029
:1033b0008c9fbe0007067800878669000c003b00e2
:1033c000030478008704780008f0a10009f0a10048
:1033d000840f5000858f5800860f5900890f5c00bc
:1033e000030033000cf0a20001003a000cf0a10031
:1033f000f3fd07006400e1005f0032007801470040
:103400006408e100610032006c01470074855700d8
:103410003200be001201be003a04be001a05be0012
:103420001e039000be0a90008503530006003d0075
:103430000004fd008104fd000205fd008305fd0080
:103440008703ea00050378000df8a30004003200aa
:1034500060041400e0841c0060051d00e0851d0070
:103460006022b8007d0320000d38e1008006eb00eb
:103470000b0039004433dd00f300b2008301730018
:1034800039003700848272000d027800e106640082
:103490008b85d1000a85d3008984d3000884d300aa
:1034a0008703e900f7ff3b000800400089804800df
:1034b0000a0149008b81490004003b0060001000b4
:1034c000e080180060011900e08119000358a30092
:1034d000090032008d8272008482720061026000f5
:1034e0008301d1000281d3008180d3000080d3000a
:1034f0000603e8001b0037000348a30017003a004a
:103500000600e000170034000603e9000d00a300e8
:103510000000480081804800020149008381490081
:103520000348a3000f003a000600e0000900340041
:103530000603e900000040008180480002014900c4
:103540008381490001003a000003eb000348a30017
:10355000f5ff32006022b80002003700848272005a
:10356000618266006afd070003f0a1000cf0a7006d
:1035700003f0a000a6fd3700640147006408e100e5
:1035800002003a000df8a3009efd3a003200be0092
:103590001201be009efd3700889fbe008a9fbe00bc
:1035a0008c9fbe000404be000605be00809fbe00c6
:1035b000829fbe002f000700040678000800be00ae
:1035c0000a01be002b000700840678004f03be00ee
:1035d0004f02be008d4f76007fb09700130033007e
:1035e000f0ff2f008b8f6b0006003b000d0666007e
:1035f0000c00a7000a00370007f0a600100020000a
:103600000a003700880f5200898f5a008a0f5b002a
:103610008b8f5b00030039001000200001003e008a
:103620000000200007f0a7000000ea004f06be00df
:103630004f05be004f04be0000000600e4824000bb
:103640001078a30007003200640240001178a30044
:103650003400be001401be00040032000330a70095
:10366000000006003500be001501be000330a000ba
:103670000000060005ff27000582610007003200f8
:103680000428e100010032002400050006000700c4
:1036900001003a004400050004080500020007008c
:1036a000f9ff3a00140005006f826100810270008a
:1036b000850271008502720000000600800078001b
:1036c0005002be005003be004439de00f700b200d5
:1036d000f37f200003016100090032000218e100bd
:1036e00016003a0085017200830173008381730024
:1036f0000008200015003a004000200013003700a9
:1037000085017200830173008381730005003a0014
:1037100004a8be0006a8be00100020000b00370061
:103720000201e9000402420085824a0006034b00c0
:1037300087834b000748a300f9ff32000740a00031
:1037400004a8be0006a8be0020002000800098004b
:103750009200980000000600881f7800030478009b
:103760000300e00007003d0060001000e08018004a
:1037700060011900e081190002003b0001f02d00fa
:10378000030037000400070008f0a70003f0a000c2
:103790004f04780000000600889fbe000082700081
:1037a00004027100048271002400320036432000bc
:1037b000c50020008383cf000a0039000541b10015
:1037c0008283cf00070039000541b1008183cf001b
:1037d000040039000541b1008083cf0001003900a9
:1037e0000541b10085c353006022b80012003200c9
:1037f0000a003b0084827200610260008301d100f4
:103800000281d3008180d3000080d3000603e8004a
:103810008743e800f7ff3a00070037000000400048
:103820008180480002014900838149000603e900c4
:103830008743e900f9ff3a00b5fc07004f04be00da
:04384000000006007e
:020000040000fa
:1038440041670000617400006f6e000000250000f5
:0c3854006c6600000025000078000000f9
:020000040000fa
:103860000200fa00f00f2900401688001800070037
:10387000810007001100200000082000b3000700ad
:103880000032200001002000620107000004200037
:10389000000f78001e0078000070a00011002000ca
:1038a000aa00070020c229005f00070011002000c5
:1038b00000082000a50007000032200001002000c1
:1038c00054010700208e200057000700f7ff370043
:1038d0000000fa00f0df2f0060198800700e22004f
:1038e000001988002223ef001020200020198800f2
:1038f00090002000401988003023ef0095a0a80018
:1039000085a0a90021e3a8000080fa0000000600bd
:103910003600f800809fbe00829fbe00849fbe00dc
:10392000869fbe000000fa0010408000e10f4000ba
:1039300006003200104080000000e80010408800bf
:1039400095a0a80085a0a900190037000228ef0063
:1039500095a0a90085a0a90000188000004088005b
:1039600000408000cf80de0050f3070002002000fe
:10397000034824000bf30700f2512800b30524008c
:103980008bf3070002002000832c240088f307003b
:10399000809fbe0090c22900801f7800208e2000ea
:1039a00010f50700e687570095a0a80085a0a9009c
:1039b0000080fa004f03be004f02be004f01be0060
:1039c0004f00be003600f900004006000600fa0075
:1039d000404798004e4090008000fb000e80e800b9
:1039e000811f7800d1c22900811f7800fdf40700f3
:1039f000e48757000e80e800020120008000eb0001
:103a0000f9f30700000f7800210020001e00780065
:103a10004e0007000032200001002000fd000700da
:103a20000080fa00000006000400fa00881f7800f9
:103a3000100798000000eb00000f78000600370028
:103a40001e0078009e00900000804000104078002a
:103a5000deff07001e0fe8001e0478001e00900025
:103a6000dbf30700800f5400f5ff39004f047800a6
:103a70000080fa00000006000000fa00004c2d0053
:103a800011002000e3000700300020006a0007005a
:103a900000c4290001002000de00070030002000e3
:103aa000650007000032200001002000d900070057
:103ab00030002000600007000032200001002000dc
:103ac000d4000700200020005b0007001100200048
:103ad000800220001d0007000032200001002000ad
:103ae000cc00070011002000800020001700070014
:103af0000032200001002000c60007001100200055
:103b00001000200011000700004c2d0011002000c3
:103b1000c000070011002000600020000b0007001b
:103b20000032200001002000ba0007001100200030
:103b3000c000200005000700003220000100200026
:103b4000b40007000080fa00000006000800fa0038
:103b50002007980031079800ae009000000f200069
:103b6000008060004400dd00000f78002e0090000f
:103b70006f0060004800dd00100798003e009000d4
:103b80000010a20000f0a7000000ea000000e90019
:103b90004f00de00004078000080fb006100600004
:103ba0004d00dd006116800001d0a1000100700011
:103bb00060168800800020000100200095000700aa
:103bc000cdc2a800611680001e00780001007000c0
:103bd0006016880080002000010020008d00070092
:103be000cdc2a9008000200001002000890007004c
:103bf00061168000000022000080600060168800ce
:103c0000cdc2a80080002000010020008100070034
:103c1000611680001e009000010070006016880090
:103c200080002000010020007a000700cc22ef0075
:103c30000080fa00000006000400fa001007980057
:103c40001e0090006f0060004800dd00000f78004b
:103c5000cdc2a800611680001e007800010070002f
:103c60006016880080002000010020006900070025
:0c3c7000cc22ef000080fa0000000600eb
:020000040000fa
:103c7c00e208000012000000000000000008000034
:103c8c0004000000000000005c0800004a00000076
:103c9c000200000030313200333435003637380042
:103cac00396162006364650066676800696a6b006d
:103cbc006c6d6e006f7071007273740075767700a6
:103ccc0078797a0000000000211511000e0d0c000f
:103cdc000b0b0a000a090900090909000808080069
:103cec000808080008070700070707000707070070
:103cfc000707070007070000f40800000400000095
:103d0c0000000000c80800001a00000002000000bb
:103d1c00686a6c00747a4c0000000100000200001c
:103d2c000400080000100000000020002b2d2300d0
:103d3c0030000000040800005800000002000000e1
:103d4c006e616e00004e41004e0069006e66000010
:103d5c00494e460000000000000000000024400016
:103d6c0000000000000000005940000000000000ae
:103d7c000088c3004000000000008400d797410079
:103d8c000080e0003779c300414317006e05b50091
:103d9c00b5b8930046f5f9003fe903004f384d00e4
:103dac00321d3000f9487700825a3c00bf737f0007
:103dbc00dd4f150075000000f8080000020000003f
:103dcc000200000030000000a608000022000000e5
:103ddc000200000030313200333435003637380001
:103dec003941420043444500460030003132330033
:103dfc00343536003738390061626300646566001b
:083e0c000000000000000000ae
:020000040000fa
:103e1400f03fb1000180b10006003500ee03090057
:103e240000000000403fb1000180b100fbff3d00f5
:103e34001000b000203fb0000200350000800900ef
:083e4400000000000000060070
:020000040000fa
:020000040001f9
:0457f800bff90000f5
:020000040000fa
:020000040001f9
:0457fc007f3e0000ec
:00000001FF
