:020000040000fa
:080000000002040000000000f2
:020000040000fa
:0400080004030000ed
:020000040000fa
:04000c0004030000e9
:020000040000fa
:0400100004030000e5
:020000040000fa
:0400140004030000e1
:020000040000fa
:0400180004030000dd
:020000040000fa
:04001c0004030000d9
:020000040000fa
:0400200004030000d5
:020000040000fa
:0400240004030000d1
:020000040000fa
:0400280004030000cd
:020000040000fa
:04002c0004030000c9
:020000040000fa
:0400300004030000c5
:020000040000fa
:0400340004030000c1
:020000040000fa
:0400380004030000bd
:020000040000fa
:04003c0004030000b9
:020000040000fa
:0400400004030000b5
:020000040000fa
:0400440004030000b1
:020000040000fa
:0400480004030000ad
:020000040000fa
:04004c0004030000a9
:020000040000fa
:0400500004030000a5
:020000040000fa
:0400540004030000a1
:020000040000fa
:04005800040300009d
:020000040000fa
:04005c000403000099
:020000040000fa
:040060000403000095
:020000040000fa
:040064000403000091
:020000040000fa
:04006800040300008d
:020000040000fa
:04006c000403000089
:020000040000fa
:040070000403000085
:020000040000fa
:040074001c04000068
:020000040000fa
:04007800040300007d
:020000040000fa
:04007c000403000079
:020000040000fa
:040080000403000075
:020000040000fa
:040084000403000071
:020000040000fa
:04008800040300006d
:020000040000fa
:04008c000403000069
:020000040000fa
:040090000403000065
:020000040000fa
:040094000403000061
:020000040000fa
:04009800040300005d
:020000040000fa
:04009c000403000059
:020000040000fa
:0400a0000403000055
:020000040000fa
:0400a4000403000051
:020000040000fa
:0400a800040300004d
:020000040000fa
:0400ac000403000049
:020000040000fa
:0400b0000403000045
:020000040000fa
:0400b4000403000041
:020000040000fa
:0400b800040300003d
:020000040000fa
:0400bc000403000039
:020000040000fa
:0400c0000403000035
:020000040000fa
:0400c4000403000031
:020000040000fa
:0400c800040300002d
:020000040000fa
:0400cc000403000029
:020000040000fa
:0400d0000403000025
:020000040000fa
:0400d4000403000021
:020000040000fa
:0400d800040300001d
:020000040000fa
:0400dc000403000019
:020000040000fa
:0400e0000403000015
:020000040000fa
:0400e4000403000011
:020000040000fa
:0400e800040300000d
:020000040000fa
:0400ec000403000009
:020000040000fa
:0400f0000403000005
:020000040000fa
:0400f4000403000001
:020000040000fa
:0400f80004030000fd
:020000040000fa
:0400fc0004030000f9
:020000040000fa
:0401000004030000f4
:020000040000fa
:0401040004030000f0
:020000040000fa
:0401080004030000ec
:020000040000fa
:04010c0004030000e8
:020000040000fa
:0401100004030000e4
:020000040000fa
:0401140004030000e0
:020000040000fa
:0401180004030000dc
:020000040000fa
:04011c0004030000d8
:020000040000fa
:0401200004030000d4
:020000040000fa
:0401240004030000d0
:020000040000fa
:0401280004030000cc
:020000040000fa
:04012c0004030000c8
:020000040000fa
:0401300004030000c4
:020000040000fa
:0401340004030000c0
:020000040000fa
:0401380004030000bc
:020000040000fa
:04013c0004030000b8
:020000040000fa
:0401400004030000b4
:020000040000fa
:0401440004030000b0
:020000040000fa
:0401480004030000ac
:020000040000fa
:04014c0004030000a8
:020000040000fa
:0401500004030000a4
:020000040000fa
:0401540004030000a0
:020000040000fa
:04015800040300009c
:020000040000fa
:04015c000403000098
:020000040000fa
:040160000403000094
:020000040000fa
:040164000403000090
:020000040000fa
:04016800040300008c
:020000040000fa
:04016c000403000088
:020000040000fa
:040170000403000084
:020000040000fa
:040174000403000080
:020000040000fa
:04017800040300007c
:020000040000fa
:04017c000403000078
:020000040000fa
:040180000403000074
:020000040000fa
:040184000403000070
:020000040000fa
:04018800040300006c
:020000040000fa
:04018c000403000068
:020000040000fa
:040190000403000064
:020000040000fa
:040194000403000060
:020000040000fa
:04019800040300005c
:020000040000fa
:04019c000403000058
:020000040000fa
:0401a0000403000054
:020000040000fa
:0401a4000403000050
:020000040000fa
:0401a800040300004c
:020000040000fa
:0401ac000403000048
:020000040000fa
:0401b0000403000044
:020000040000fa
:0401b4000403000040
:020000040000fa
:0401b800040300003c
:020000040000fa
:0401bc000403000038
:020000040000fa
:0401c0000403000034
:020000040000fa
:0401c4000403000030
:020000040000fa
:0401c800040300002c
:020000040000fa
:0401cc000403000028
:020000040000fa
:0401d0000403000024
:020000040000fa
:0401d4000403000020
:020000040000fa
:0401d800040300001c
:020000040000fa
:0401dc000403000018
:020000040000fa
:0401e0000403000014
:020000040000fa
:0401e4000403000010
:020000040000fa
:0401e800040300000c
:020000040000fa
:0401ec000403000008
:020000040000fa
:0401f0000403000004
:020000040000fa
:0401f4000403000000
:020000040000fa
:0401f80004030000fc
:020000040000fa
:0401fc0004030000f8
:020000040000fa
:0402080004030000eb
:020000040000fa
:04020c0004030000e7
:020000040000fa
:0402100004030000e3
:020000040000fa
:0402140004030000df
:020000040000fa
:0402180004030000db
:020000040000fa
:04021c0004030000d7
:020000040000fa
:0402200004030000d3
:020000040000fa
:0402240004030000cf
:020000040000fa
:0402280004030000cb
:020000040000fa
:04022c0004030000c7
:020000040000fa
:0402300004030000c3
:020000040000fa
:0402340004030000bf
:020000040000fa
:0402380004030000bb
:020000040000fa
:04023c0004030000b7
:020000040000fa
:0402400004030000b3
:020000040000fa
:0402440004030000af
:020000040000fa
:0402480004030000ab
:020000040000fa
:04024c0004030000a7
:020000040000fa
:0402500004030000a3
:020000040000fa
:04025400040300009f
:020000040000fa
:04025800040300009b
:020000040000fa
:04025c000403000097
:020000040000fa
:040260000403000093
:020000040000fa
:04026400040300008f
:020000040000fa
:04026800040300008b
:020000040000fa
:04026c000403000087
:020000040000fa
:040270000403000083
:020000040000fa
:04027400040300007f
:020000040000fa
:04027800040300007b
:020000040000fa
:04027c000403000077
:020000040000fa
:040280000403000073
:020000040000fa
:04028400040300006f
:020000040000fa
:04028800040300006b
:020000040000fa
:04028c000403000067
:020000040000fa
:040290000403000063
:020000040000fa
:04029400040300005f
:020000040000fa
:04029800040300005b
:020000040000fa
:04029c000403000057
:020000040000fa
:0402a0000403000053
:020000040000fa
:0402a400040300004f
:020000040000fa
:0402a800040300004b
:020000040000fa
:0402ac000403000047
:020000040000fa
:0402b0000403000043
:020000040000fa
:0402b400040300003f
:020000040000fa
:0402b800040300003b
:020000040000fa
:0402bc000403000037
:020000040000fa
:0402c0000403000033
:020000040000fa
:0402c400040300002f
:020000040000fa
:0402c800040300002b
:020000040000fa
:0402cc000403000027
:020000040000fa
:0402d0000403000023
:020000040000fa
:0402d400040300001f
:020000040000fa
:0402d800040300001b
:020000040000fa
:0402dc000403000017
:020000040000fa
:0402e0000403000013
:020000040000fa
:0402e400040300000f
:020000040000fa
:0402e800040300000b
:020000040000fa
:0402ec000403000007
:020000040000fa
:0402f0000403000003
:020000040000fa
:0402f40004030000ff
:020000040000fa
:0402f80004030000fb
:020000040000fa
:0402fc0004030000f7
:020000040000fa
:0403000004030000f2
:020000040000fa
:0403040004030000ee
:020000040000fa
:0403080004030000ea
:020000040000fa
:04030c0004030000e6
:020000040000fa
:0403100004030000e2
:020000040000fa
:0403140004030000de
:020000040000fa
:0403180004030000da
:020000040000fa
:04031c0004030000d6
:020000040000fa
:0403200004030000d2
:020000040000fa
:0403240004030000ce
:020000040000fa
:0403280004030000ca
:020000040000fa
:04032c0004030000c6
:020000040000fa
:0403300004030000c2
:020000040000fa
:0403340004030000be
:020000040000fa
:0403380004030000ba
:020000040000fa
:04033c0004030000b6
:020000040000fa
:0403400004030000b2
:020000040000fa
:0403440004030000ae
:020000040000fa
:0403480004030000aa
:020000040000fa
:04034c0004030000a6
:020000040000fa
:0403500004030000a2
:020000040000fa
:04035400040300009e
:020000040000fa
:04035800040300009a
:020000040000fa
:04035c000403000096
:020000040000fa
:040360000403000092
:020000040000fa
:04036400040300008e
:020000040000fa
:04036800040300008a
:020000040000fa
:04036c000403000086
:020000040000fa
:040370000403000082
:020000040000fa
:04037400040300007e
:020000040000fa
:04037800040300007a
:020000040000fa
:04037c000403000076
:020000040000fa
:040380000403000072
:020000040000fa
:04038400040300006e
:020000040000fa
:04038800040300006a
:020000040000fa
:04038c000403000066
:020000040000fa
:040390000403000062
:020000040000fa
:04039400040300005e
:020000040000fa
:04039800040300005a
:020000040000fa
:04039c000403000056
:020000040000fa
:0403a0000403000052
:020000040000fa
:0403a400040300004e
:020000040000fa
:0403a800040300004a
:020000040000fa
:0403ac000403000046
:020000040000fa
:0403b0000403000042
:020000040000fa
:0403b400040300003e
:020000040000fa
:0403b800040300003a
:020000040000fa
:0403bc000403000036
:020000040000fa
:0403c0000403000032
:020000040000fa
:0403c400040300002e
:020000040000fa
:0403c800040300002a
:020000040000fa
:0403cc000403000026
:020000040000fa
:0403d0000403000022
:020000040000fa
:0403d400040300001e
:020000040000fa
:0403d800040300001a
:020000040000fa
:0403dc000403000016
:020000040000fa
:0403e0000403000012
:020000040000fa
:0403e400040300000e
:020000040000fa
:0403e800040300000a
:020000040000fa
:0403ec000403000006
:020000040000fa
:0403f0000403000002
:020000040000fa
:0403f40004030000fe
:020000040000fa
:0403f80004030000fa
:020000040000fa
:0403fc0004030000f6
:020000040000fa
:100400008f8120000e7f22000e0188000000000076
:10041000000020000000e000020032000001200087
:100420002002880014000700790007000000e000a7
:1004300003003a00c07120000100200002003700d4
:100440000000200001002000810f70000100320038
:1004500014000700000020000000e000020032004d
:1004600000000200000000000a030200000000007b
:100470000040da000000fe004440a90020002000f7
:100480000000e0000300320010002000900188000e
:100490004440a800000006008a1f78008b1f7800e7
:1004a00000000600a1028800800478000000eb0034
:1004b0001f003700e284440054a0b4009905ba003c
:1004c000e284440054a0b4009906ba00e2844400d7
:1004d00054a0b4000006eb00476fde00fd07b20039
:1004e000ae018800636ce10003003a00eaff0700f8
:1004f0000000eb000e003700606ce10008003a00dd
:10050000004deb000a05e800020039003420ec0041
:100510000af0a0008b05e900f9ff3e000400370057
:100520006168e100010032000086eb000b0007006b
:1005300019c7ba001905ba000e04e00003003a001a
:100540000a00e000dbff3a0000000600fe07b200f0
:10055000ae0288008a047800f5ff37000cd0a300b3
:10056000e20f4d001c00390089027800354dba00b9
:100570000a05e800020039003420ec000af0a0006f
:100580008b05e9000f003200254dba000a05e8008e
:10059000020039003420ec000af0a0008b05e900cd
:1005a000080032000c00e0000600320015cdba0051
:1005b0000a05e800020039003420ec000af0a0002f
:1005c0008b05e9008984e80054a0b4000b00e0002a
:1005d000e2ff3a00000006009902ba00055d7800cb
:1005e0008b05e900f7ff3200c82ade00055d7800c0
:1005f0008b05e900f3ff32000c00e000f1ff320050
:1006000019ddba00eeff37000040da000000fe00fe
:0406100000000500e1
:020000040000fa
:100614000000fa008821ef00f0002000000c8800a0
:1006240080e12f00500c88000080eb00700c8800e3
:1006340070038000c000b300700388008103800051
:100644000000260001007000800388001003800071
:10065400c000b300100388002103800000002600be
:1006640001007000200388009660a8008660a9003d
:100674008e01a9008e21a9008e41a9000100370036
:1006840000000000004080000000e000060032008e
:100694008ea1a9008ec1a8008ee1a8008f01a80038
:1006a4000028ef00f7ff3700104080000000e00052
:1006b400060032008ea1a8008ec1a9008ee1a80018
:1006c4008f01a8000228ef00eeff370020408000d1
:1006d4000000e000060032008ea1a9008ec1a9002e
:1006e4008ee1a8008f01a8000428ef00e5ff370081
:1006f400304080000000e000060032008ea1a80017
:100704008ec1a8008ee1a9008f01a8000628ef0081
:10071400dcff3700404080000000e00006003200ab
:100724008ea1a9008ec1a8008ee1a9008f01a800a6
:100734000828ef00d3ff3700504080000000e0009d
:10074400060032008ea1a8008ec1a9008ee1a90086
:100754008f01a8000a28ef00caff3700604080001c
:100764000000e000060032008ea1a9008ec1a9009d
:100774008ee1a9008f01a8000c28ef00c1ff37000b
:10078400704080000000e000060032008ea1a80046
:100794008ec1a8008ee1a8008f01a9000e28ef00e9
:1007a400b8ff3700804080000000e00006003200ff
:1007b4008ea1a9008ec1a8008ee1a8008f01a90016
:1007c4001028ef00afff3700904080000000e000e9
:1007d400060032008ea1a8008ec1a9008ee1a800f7
:1007e4008f01a9001228ef00a6ff3700a040800067
:1007f4000000e000060032008ea1a8008ec1a8000f
:100804008ee1a8008f01a8001428ef009dff370097
:10081400b04080000000e00099ff32008ea1a900e2
:100824008ec1a9008ee1a8008f01a9001628ef004f
:1008340094ff3700801f78003200f8003400f8007d
:1008440010002000a0018800100020009001880002
:100854000400fa000000eb00000f78000000eb0039
:1008640010079800100c8000610060000000e00098
:1008740058003a000000eb001007980051003700c0
:100884001e0090000000e00017003a008e21a8002e
:100894008e41a800010037001e0fe800100c8000f4
:1008a400610060000000e00003003a001e007800d0
:1008b400e90f5000f8ff34001e007800ea0f5000e2
:1008c40005003a0010002000004088008e21a90095
:1008d4008e41a900510137000028ef008e21a900a4
:1008e4008e41a900340037001e009000e10f500033
:1008f40017003a008e01a8008e41a80001003700bd
:100904001e0fe800100c8000610060000000e00091
:1009140003003a001e007800e90f5000f8ff34008d
:100924001e007800ea0f500005003a001000200075
:10093400104088008e01a9008e41a90037013700bc
:100944000228ef008e01a9008e41a9001a00370089
:100954001e009000e20f500017003a008e01a8001c
:100964008e21a800010037001e0fe800100c800043
:10097400610060000000e00003003a001e007800ff
:10098400e90f5000f8ff34001e007800ea0f500011
:1009940006003a0010002000204088008e01a900c3
:1009a4008e21a900000000001c0137000428ef007c
:1009b4008e01a9008e21a9001e0090000000e8000d
:1009c400100798001e009000e20f5000acff3400a6
:1009d40012013700100c8000620060000000e0008b
:1009e40058003a000000eb0010079800510037004f
:1009f4001e0090000000e00017003a008e21a800bd
:100a04008e41a800010037001e0fe800100c800082
:100a1400620060000000e00003003a001e0078005d
:100a2400e90f5000f8ff34001e007800ea0f500070
:100a340005003a0010002000304088008e21a900f3
:100a44008e41a900f50037000628ef008e21a90089
:100a54008e41a900340037001e009000e10f5000c1
:100a640017003a008e01a8008e41a800010037004b
:100a74001e0fe800100c8000620060000000e0001f
:100a840003003a001e007800e90f5000f8ff34001c
:100a94001e007800ea0f500005003a001000200004
:100aa400404088008e01a9008e41a900db00370078
:100ab4000828ef008e01a9008e41a9001a00370012
:100ac4001e009000e20f500017003a008e01a800ab
:100ad4008e21a800010037001e0fe800100c8000d2
:100ae400620060000000e00003003a001e0078008d
:100af400e90f5000f8ff34001e007800ea0f5000a0
:100b040006003a0010002000504088008e01a90021
:100b14008e21a90000000000c00037000a28ef0061
:100b24008e01a9008e21a9001e0090000000e8009b
:100b3400100798001e009000e20f5000acff340034
:100b4400b6003700100c8000640060000000e00074
:100b540058003a000000eb001007980051003700dd
:100b64001e0090000000e00017003a008e21a8004b
:100b74008e41a800010037001e0fe800100c800011
:100b8400640060000000e00003003a001e007800ea
:100b9400e90f5000f8ff34001e007800ea0f5000ff
:100ba40005003a0010002000604088008e21a90052
:100bb4008e41a900990037000c28ef008e21a9006e
:100bc4008e41a900340037001e009000e10f500050
:100bd40017003a008e01a8008e41a80001003700da
:100be4001e0fe800100c8000640060000000e000ac
:100bf40003003a001e007800e90f5000f8ff3400ab
:100c04001e007800ea0f500005003a001000200092
:100c1400704088008e01a9008e41a9007f00370032
:100c24000e28ef008e01a9008e41a9001a0037009a
:100c34001e009000e20f500017003a008e01a80039
:100c44008e21a800010037001e0fe800100c800060
:100c5400640060000000e00003003a001e00780019
:100c6400e90f5000f8ff34001e007800ea0f50002e
:100c740006003a0010002000804088008e01a90080
:100c84008e21a90000000000640037001028ef0046
:100c94008e01a9008e21a9001e0090000000e8002a
:100ca400100798001e009000e20f5000acff3400c3
:100cb4005a003700100c8000680060000000e0005b
:100cc40056003a000000eb0010079800500037006f
:100cd4001e0090000000e00017003a008e21a800da
:100ce4008e41a800010037001e0fe800100c8000a0
:100cf400680060000000e00003003a001e00780075
:100d0400e90f5000f8ff34001e007800ea0f50008d
:100d140005003a0010002000904088008e21a900b0
:100d24008e41a9003d0037001228ef008e21a90052
:100d34008e41a900330037001e009000e10f5000df
:100d440017003a008e01a8008e41a8000100370068
:100d54001e0fe800100c8000680060000000e00036
:100d640003003a001e007800e90f5000f8ff340039
:100d74001e007800ea0f500005003a001000200021
:100d8400a04088008e01a9008e41a90023003700ed
:100d94001428ef008e01a9008e41a9001900370024
:100da4001e009000e20f500016003a008e01a800c9
:100db4008e21a800010037001e0fe800100c8000ef
:100dc400680060000000e00003003a001e007800a4
:100dd400e90f5000f8ff34001e007800ea0f5000bd
:100de40005003a0010002000b04088008e01a900e0
:100df4008e21a900090037001628ef008e01a900f2
:100e04008e21a9001e0090000000e8001007980041
:100e14001e009000e20f5000adff34008660a90070
:100e24000080fa003400f9003200f9004f00780025
:040e34000040060074
:020000040000fa
:100e3800000800001800000080000000000000000a
:020000040000fa
:020000040001f9
:0457f400fffe0000b4
:020000040000fa
:020000040001f9
:0457f8009fc100004d
:020000040000fa
:020000040001f9
:0457fc003f3e00002c
:00000001FF
